:020000040800F2
:1000000000500020ED110008190E00081F0E000816
:10001000250E00082B0E0008310E0008000000001D
:10002000000000000000000000000000370E000883
:10003000430E0008000000004F0E00085B0E000891
:100040003512000835120008351200083512000874
:100050003512000835120008351200083512000864
:100060003512000835120008351200083512000854
:100070003512000835120008351200083512000844
:100080003512000835120008351200083512000834
:100090003512000835120008351200083512000824
:1000A0003512000835120008351200083512000814
:1000B000690E0008351200083512000835120008D4
:1000C00035120008351200083512000835120008F4
:1000D000351200087D0E00083512000835120008A0
:1000E0003512000835120008351200080000000023
:1000F0000000000000000000000000000000000000
:0C01000000000000000000005FF808F1A3
:10010C0010B5054C237833B9044B13B10448AFF345
:10011C0000800123237010BD74000020000000003B
:10012C002052000808B5034B1BB103490348AFF339
:10013C00008008BD0000000078000020205200085C
:10014C0010F8012B11F8013B012A28BF9A42F7D075
:10015C00D01A704780B586B000AF78607B680233E8
:10016C001B787B617B6803331B783B616D4BFB60B9
:10017C003B697A696C49F86804F04CFB6B49F86888
:10018C00FFF7DEFF0346002B04D14FF6FF7000F0A3
:10019C0001FAC1E06649F868FFF7D2FF0346002B6D
:1001AC0003D1012000F0F6F9B6E06249F868FFF7D8
:1001BC00C7FF0346002B03D1022000F0EBF9ABE0A4
:1001CC005D49F868FFF7BCFF0346002B03D1042000
:1001DC0000F0E0F9A0E05949F868FFF7B1FF0346D9
:1001EC00002B03D1082000F0D5F995E05449F868AC
:1001FC00FFF7A6FF0346002B03D1102000F0CAF92D
:10020C008AE05049F868FFF79BFF0346002B03D1A7
:10021C00202000F0BFF97FE04B49F868FFF790FF12
:10022C000346002B03D1402000F0B4F974E0474999
:10023C00F868FFF785FF0346002B03D1802000F000
:10024C00A9F969E04249F868FFF77AFF0346002BE9
:10025C0004D14FF4807000F09DF95DE03D49F868E1
:10026C00FFF76EFF0346002B04D14FF4007000F033
:10027C0091F951E03849F868FFF762FF0346002B0B
:10028C0004D14FF4806000F085F945E03349F868FB
:10029C00FFF756FF0346002B04D14FF4006000F02B
:1002AC0079F939E02E49F868FFF74AFF0346002B2D
:1002BC0004D14FF4805000F06DF92DE02949F86815
:1002CC00FFF73EFF0346002B04D14FF4005000F023
:1002DC0061F921E02449F868FFF732FF0346002B4F
:1002EC0004D14FF4804000F055F915E01F49F8682F
:1002FC00FFF726FF0346002B04D14FF4004000F01B
:10030C0049F909E01A49F868FFF71AFF0346002B70
:10031C0002D1012000F002FA00F098FC00BF18375F
:10032C00BD4680BD385200083C52000844520008BB
:10033C00485200084C520008505200085452000811
:10034C00585200085C5200086052000864520008C1
:10035C00685200086C520008705200087452000871
:10036C00785200087C520008805200088452000821
:10037C008852000880B586B000AF78607B68023385
:10038C001B787B617B6803331B783B616D4BFB6097
:10039C003B697A696C49F86804F03CFA6B49F86877
:1003AC00FFF7CEFE0346002B04D14FF6FF7000F092
:1003BC002BF9C1E06649F868FFF7C2FE0346002B33
:1003CC0003D1012000F020F9B6E06249F868FFF78C
:1003DC00B7FE0346002B03D1022000F015F9ABE069
:1003EC005D49F868FFF7ACFE0346002B03D10420EF
:1003FC0000F00AF9A0E05949F868FFF7A1FE03469E
:10040C00002B03D1082000F0FFF895E05449F86860
:10041C00FFF796FE0346002B03D1102000F0F4F8F2
:10042C008AE05049F868FFF78BFE0346002B03D196
:10043C00202000F0E9F87FE04B49F868FFF780FED8
:10044C000346002B03D1402000F0DEF874E047494E
:10045C00F868FFF775FE0346002B03D1802000F0EF
:10046C00D3F869E04249F868FFF76AFE0346002BAF
:10047C0004D14FF4807000F0C7F85DE03D49F86896
:10048C00FFF75EFE0346002B04D14FF4007000F022
:10049C00BBF851E03849F868FFF752FE0346002BD1
:1004AC0004D14FF4806000F0AFF845E03349F868B0
:1004BC00FFF746FE0346002B04D14FF4006000F01A
:1004CC00A3F839E02E49F868FFF73AFE0346002BF3
:1004DC0004D14FF4805000F097F82DE02949F868CA
:1004EC00FFF72EFE0346002B04D14FF4005000F012
:1004FC008BF821E02449F868FFF722FE0346002B15
:10050C0004D14FF4804000F07FF815E01F49F868E3
:10051C00FFF716FE0346002B04D14FF4004000F009
:10052C0073F809E01A49F868FFF70AFE0346002B36
:10053C0002D1002000F0F2F800F088FB00BF183761
:10054C00BD4680BD385200083C5200084452000899
:10055C00485200084C5200085052000854520008EF
:10056C00585200085C52000860520008645200089F
:10057C00685200086C52000870520008745200084F
:10058C00785200087C5200088052000884520008FF
:10059C008852000880B584B002AF78607B681AB2CC
:1005AC00154B1B881BB213431BB29AB2124B1A8009
:1005BC00114B1B88DAB2114B1A700F4B1B881B0A9C
:1005CC009BB2DAB20D4B5A70002201210C4801F09B
:1005DC00D1F94FF0FF3300930223084A4021094818
:1005EC0001F024FB01220121054801F0C3F900BFF1
:1005FC000837BD4680BD00BF94000020900000204D
:10060C00000C0140C800002080B584B002AF7860B7
:10061C007B68DB437B607B681AB2154B1B881BB273
:10062C0013401BB29AB2124B1A80114B1B88DAB2D0
:10063C00104B1A700E4B1B881B0A9BB2DAB20D4B77
:10064C005A70002201210C4801F094F94FF0FF334D
:10065C0000930223074A4021084801F0E7FA0122DF
:10066C000121054801F086F900BF0837BD4680BD61
:10067C009400002090000020000C0140C8000020D5
:10068C0080B582B002AF214B1B88002B02D11F4BCF
:10069C0001221A801D4B1B88DAB21D4B1A701B4BA2
:1006AC001B881B0A9BB2DAB2194B5A70002201212B
:1006BC00184801F05FF94FF0FF3300930223144AFE
:1006CC004021154801F0B2FA01220121114801F034
:1006DC0051F90E4B1B88B3F5004F0DD90B4B1B88F2
:1006EC005B009AB2094B1A80084B1B8843F001033C
:1006FC009AB2064B1A8005E0044B1B885B009AB239
:10070C00024B1A8000BFBD4680BD00BF9400002084
:10071C0090000020000C0140C800002080B483B081
:10072C0000AF7860034A7B68136000BF0C37BD468E
:10073C0080BC70479800002080B58CB002AF786008
:10074C007B6802331B787B627B6803331B783B62CC
:10075C007B6804331B78FB617B6805331B78BB61BA
:10076C001449786AFFF7ECFC0346002B09D107F11A
:10077C000800BB690093FB693A6A0F4904F04AF818
:10078C000AE007F10800BB690193FB6900933B6A1F
:10079C007A6A0A4904F03EF807F10803184604F097
:1007AC0003F80346064A136000F050FA00BF2837DE
:1007BC00BD4680BD8C52000890520008985200082B
:1007CC000000002080B586B002AF78607B689B7813
:1007DC00FB737B68DB78BB737B681B797B737B68F3
:1007EC005B793B73FB7B2D491846FFF7A9FC03464D
:1007FC00002B33D1BB7B29491846FFF7A1FC0346DC
:10080C00002B21D17B7B25491846FFF799FC034629
:10081C00002B12D13B7B21491846FFF791FC034674
:10082C00002B03D11E4B1D4A1A6023E03B7B1A465A
:10083C001C491B4803F0EEFF1CE07A7B3B7B1A49FA
:10084C00174803F0E7FF15E0BA7B797B3B7B0093FD
:10085C000B461649124803F0DDFF0BE0F97BB87B21
:10086C007B7B3A7B0192009303460A4610490C4865
:10087C0003F0D0FF0A4803F097FF03469BB2C3F383
:10088C000B030C4A13600B4B1B68184600F014F852
:10089C0000F0DCF900BF1037BD4680BDA452000843
:1008AC00A8000020A8520008AC520008B45200085E
:1008BC00BC520008A400002080B584B002AF786060
:1008CC0000220221104801F055F8104B00221A703A
:1008DC007B681B12DAB20D4B5A707B68DAB20B4B89
:1008EC009A704FF0FF3300930323084AC62108483F
:1008FC0001F09CF901220221034801F03BF800BFF2
:10090C000837BD4680BD00BF000C01409C00002094
:10091C00C800002080B590B002AF002204211F480F
:10092C0001F028F81E4B00221A70642301221C4986
:10093C001C4802F01FF901220421184801F01AF892
:10094C0000220421154801F015F84FF0FF33032263
:10095C001549144802F04AFA012204210F4801F00B
:10096C0009F800F073F9104B1B781A460E4B5B78A4
:10097C0019460D4B9B78384600930B460B4903F0F8
:10098C0049FF78637B6B9AB239466423084803F0BD
:10099C0020FA00BF3837BD4680BD00BF000C0140B7
:1009AC00B800002038010020C0000020C852000808
:1009BC00DC01002080B586B000AF07F108030022EF
:1009CC001A605A609A60DA60174B9B69164A43F0BA
:1009DC0008039361144B9B6903F008037B607B68ED
:1009EC00114B9B69104A43F0040393610E4B9B69B6
:1009FC0003F004033B603B68002207210B4800F026
:100A0C00B9FF0723BB600123FB6000233B6102237A
:100A1C007B6107F108031946044800F027FE00BF6C
:100A2C001837BD4680BD00BF00100240000C0140CD
:100A3C0080B500AF124B134A1A60114B124A5A6020
:100A4C000F4B00229A600E4B0022DA600C4B4FF4D5
:100A5C0080421A610A4B00225A61094B00229A61AA
:100A6C00074B0022DA61064B00221A62044800F0A0
:100A7C0099FF0346002B01D000F00EF900BF80BD9A
:100A8C00C800002000540040A086010080B588B04A
:100A9C0000AF786007F1100300221A605A609A6068
:100AAC00DA607B681B68154A934223D1144B9B690F
:100ABC00134A43F008039361114B9B6903F008033D
:100ACC00FB60FB68C0233B6112237B610323FB614A
:100ADC0007F1100319460B4800F0C8FD084BDB6901
:100AEC00074A43F40013D361054BDB6903F400138D
:100AFC00BB60BB6800BF2037BD4680BD00540040C2
:100B0C0000100240000C014080B500AF00F08EFBDD
:100B1C0000F020F8FFF74EFF00F060FAFFF788FFB7
:100B2C0000F0C0F800F0EAF906220749074803F084
:100B3C00E2F9074802F056FD4FF6FF70FFF764FD2F
:100B4C000020FFF7B9FEFEE71C010020DC010020AD
:100B5C009401002080B590B000AF07F11803282253
:100B6C000021184603F04EFE3B1D00221A605A600D
:100B7C009A60DA601A610223BB610123BB62102305
:100B8C00FB6202237B630023BB634FF4C013FB6344
:100B9C0007F11803184601F04FFB0346002B01D058
:100BAC0000F07AF80F237B600223BB600023FB600C
:100BBC0000233B6100237B613B1D0121184601F0A2
:100BCC00BDFD0346002B01D000F066F800BF403796
:100BDC00BD4680BD80B582B000AF78607B68054AA9
:100BEC00934202D1044800F077FA00BF0837BD46A3
:100BFC0080BD00BFDC0100201C01002080B582B04C
:100C0C0000AF78607B680D4A934213D10C4B1B6884
:100C1C0001330B4A13600B4B1B68002B0AD0084B9B
:100C2C001A68094B1B689A4204DB054B00221A60B8
:100C3C00FFF726FD00BF0837BD4680BD940100209C
:100C4C0034010020980000200000002080B500AF87
:100C5C004FF0FF3301220549054803F0BAF806228C
:100C6C000449034803F047F900BF80BDE052000877
:100C7C00DC0100201C01002080B500AF4FF0FF33D9
:100C8C0001220349034803F0A4F800BF80BD00BF54
:100C9C00E4520008DC01002080B400AF72B600BF43
:100CAC00FEE7000080B500AF174B184A1A60164BD0
:100CBC004FF482725A60144B00229A60124B00223D
:100CCC00DA60114B00221A610F4B00225A610E4B55
:100CDC004FF400729A610C4B2022DA610A4B00220D
:100CEC001A62094B00225A62074B00229A62064B89
:100CFC000A22DA62044801F0B9FE0346002B01D047
:100D0C00FFF7CAFF00BF80BD38010020003800404B
:100D1C0080B588B000AF786007F1100300221A602C
:100D2C005A609A60DA607B681B681C4A934231D126
:100D3C001B4BDB691A4A43F48043D361184BDB69C4
:100D4C0003F48043FB60FB68154B9B69144A43F02A
:100D5C0008039361124B9B6903F00803BB60BB68EB
:100D6C004FF420433B6102237B610323FB6107F1BA
:100D7C00100319460B4800F079FC4FF480433B619B
:100D8C0000237B610023BB6107F110031946054862
:100D9C0000F06CFC00BF2037BD4680BD0038004021
:100DAC0000100240000C014080B485B000AF154B20
:100DBC009B69144A43F001039361124B9B6903F046
:100DCC000103BB60BB680F4BDB690E4A43F08053D9
:100DDC00D3610C4BDB6903F080537B607B680A4B5F
:100DEC005B68FB60FB6823F0E063FB60FB6843F02F
:100DFC008063FB60044AFB68536000BF1437BD4638
:100E0C0080BC7047001002400000014080B400AF6D
:100E1C00FEE780B400AFFEE780B400AFFEE780B41D
:100E2C0000AFFEE780B400AFFEE780B400AF00BFB8
:100E3C00BD4680BC704780B400AF00BFBD4680BCCF
:100E4C00704780B400AF00BFBD4680BC704780B512
:100E5C0000AF00F031FA00BF80BD000080B500AFDC
:100E6C00024802F011FC00BF80BD00BF94010020BD
:100E7C0080B500AF024803F06FF800BF80BD00BF23
:100E8C00DC01002080B586B000AF7860144A154BA9
:100E9C00D31A7B617B693B61134B1B68002B02D11E
:100EAC00114B124A1A60104B1A687B6813443A694A
:100EBC009A4207D203F07CFC03460C221A604FF0D6
:100ECC00FF3309E0084B1B68FB60074B1A687B6813
:100EDC001344054A1360FB6818461837BD4680BD9D
:100EEC000050002000040000900100203802002077
:100EFC0080B400AF00BFBD4680BC704780B586B0E3
:100F0C0000AF07F1080300221A605A609A60DA6099
:100F1C003B4600221A605A601D4B4FF080421A600B
:100F2C001B4B1F225A601A4B00229A60184B40F23E
:100F3C00E732DA60164B00221A61154B00229A61D7
:100F4C00134802F0FFFA0346002B01D0FFF7A4FE72
:100F5C004FF48053BB6007F1080319460C4802F0AC
:100F6C009BFC0346002B01D0FFF796FE00233B6051
:100F7C0000237B603B461946054802F06DFE034694
:100F8C00002B01D0FFF788FE00BF1837BD4680BD8F
:100F9C009401002080B584B000AF78607B681B683A
:100FAC00B3F1804F13D10C4BDB690B4A43F00103B7
:100FBC00D361094BDB6903F00103FB60FB68002282
:100FCC0000211C2000F06BFA1C2000F084FA00BFFA
:100FDC001037BD4680BD00BF0010024080B500AF89
:100FEC00114B124A1A60104B4FF4E1325A600E4BFF
:100FFC0000229A600C4B0022DA600B4B00221A6123
:10100C00094B0C225A61084B00229A61064B0022B4
:10101C00DA61054802F090FE0346002B01D0FFF781
:10102C003BFE00BF80BD00BFDC010020003801404A
:10103C0080B588B000AF786007F1100300221A6009
:10104C005A609A60DA607B681B68204A934239D1F7
:10105C001F4B9B691E4A43F4804393611C4B9B6955
:10106C0003F48043FB60FB68194B9B69184A43F0FF
:10107C0004039361164B9B6903F00403BB60BB68CC
:10108C004FF400733B6102237B610323FB6107F187
:10109C00100319460F4800F0E9FA4FF480633B61E6
:1010AC0000237B610023BB6107F11003194609483B
:1010BC0000F0DCFA00220021252000F0F0F92520B8
:1010CC0000F009FA00BF2037BD4680BD0038014052
:1010DC00001002400008014080B584B000AF786079
:1010EC007B681B78FB607B6801331B78BB603549E0
:1010FC007868FFF725F80346002B02D1FFF7A6FD11
:10110C005CE007F10C0330491846FFF719F8034669
:10111C00002B26D107F108032C491846FFF710F8CD
:10112C000346002B03D17868FFF724F946E007F15A
:10113C00080327491846FFF703F80346002B03D191
:10114C007868FFF707F839E007F1080321491846DA
:10115C00FEF7F6FF0346002B30D17868FFF7ECFA68
:10116C002CE007F10C031C491846FEF7E9FF034677
:10117C00002B0CD107F1080314491846FEF7E0FFC9
:10118C000346002B1AD17868FFF71CFB16E007F119
:10119C000C030E491846FEF7D3FF0346002B0BD168
:1011AC0007F108030D491846FEF7CAFF0346002B4A
:1011BC0004D1FFF7AFFB01E0FFF75EFD00BF103776
:1011CC00BD4680BDE8520008F0520008F4520008F9
:1011DC00F8520008FC5200080053000804530008A1
:1011EC000C480D490D4A002302E0D458C450043376
:1011FC00C4188C42F9D30A4A0A4C002301E013604C
:10120C000432A242FBD3FFF773FE03F0D7FAFFF7C9
:10121C007BFC704700000020740000206C54000818
:10122C007400002034020020FEE7000080B500AFFF
:10123C00084B1B68074A43F010031360032000F0AF
:10124C0023F90F2000F008F8FFF7AEFD0023184635
:10125C0080BD00BF0020024080B582B000AF786036
:10126C00124B1A68124B1B7819464FF47A73B3FB66
:10127C00F1F3B2FBF3F3184600F03BF90346002BF5
:10128C0001D001230EE07B680F2B0AD8002279686D
:10129C004FF0FF3000F003F9064A7B68136000231F
:1012AC0000E0012318460837BD4680BD040000202D
:1012BC000C0000200800002080B400AF054B1B7808
:1012CC001A46054B1B681344034A136000BFBD4606
:1012DC0080BC70470C0000202002002080B400AFBE
:1012EC00024B1B681846BD4680BC7047200200208C
:1012FC0080B485B000AF78607B6803F00703FB60B7
:10130C000C4BDB68BB60BA684FF6FF031340BB6045
:10131C00FB681A02BB68134343F0BF6343F400330A
:10132C00BB60044ABB68D36000BF1437BD4680BCA9
:10133C00704700BF00ED00E080B400AF044BDB68E9
:10134C001B0A03F007031846BD4680BC704700BF5C
:10135C0000ED00E080B483B000AF0346FB7197F959
:10136C000730002B0BDBFB7903F01F02064997F9C2
:10137C0007305B09012000FA02F241F8232000BF7C
:10138C000C37BD4680BC704700E100E080B483B0F0
:10139C0000AF03463960FB7197F90730002B0ADB6D
:1013AC003B68DAB20C4997F907301201D2B20B4400
:1013BC0083F800230AE03B68DAB20849FB7903F0B2
:1013CC000F03043B1201D2B20B441A7600BF0C3748
:1013DC00BD4680BC704700BF00E100E000ED00E0BE
:1013EC0080B489B000AFF860B9607A60FB6803F034
:1013FC000703FB61FB69C3F10703042B28BF04231C
:10140C00BB61FB690433062B02D9FB69033B00E08B
:10141C0000237B614FF0FF32BB6902FA03F3DA431E
:10142C00BB681A407B699A404FF0FF317B6901FA27
:10143C0003F3D9437B680B40134318462437BD464E
:10144C0080BC704780B582B000AF78607B68013B90
:10145C00B3F1807F01D301230FE00A4A7B68013B83
:10146C0053600F214FF0FF30FFF790FF054B002228
:10147C009A60044B07221A60002318460837BD46B1
:10148C0080BD00BF10E000E080B582B000AF786096
:10149C007868FFF72DFF00BF0837BD4680BD80B5CB
:1014AC0086B000AF0346B9607A60FB7300237B61A2
:1014BC00FFF742FF78617A68B9687869FFF790FFA7
:1014CC00024697F90F3011461846FFF75FFF00BF31
:1014DC001837BD4680BD80B582B000AF0346FB71A6
:1014EC0097F907301846FFF735FF00BF0837BD46A0
:1014FC0080BD80B582B000AF78607868FFF7A2FF3E
:10150C00034618460837BD4680BD80B485B000AF91
:10151C0078600023FB737B6893F82130022B08D092
:10152C007B6804229A637B68002283F820200123C5
:10153C0020E07B681B681A687B681B6822F00E022F
:10154C001A607B681B681A687B681B6822F00102B2
:10155C001A607B681A6C7B68DB6B012101FA02F262
:10156C005A607B68012283F821207B68002283F873
:10157C002020FB7B18461437BD4680BC704700000A
:10158C0080B584B000AF78600023FB737B6893F860
:10159C002130022B05D07B6804229A630123FB7354
:1015AC0051E07B681B681A687B681B6822F00E028E
:1015BC001A607B681B681A687B681B6822F0010242
:1015CC001A607B681B68224A934229D07B681B688F
:1015DC00204A934222D07B681B681F4A93421AD040
:1015EC007B681B681D4A934212D07B681B681C4A9F
:1015FC0093420AD07B681B681A4A934202D14FF47B
:10160C0080130EE04FF080730BE04FF4803308E052
:10161C004FF4805305E04FF4807302E0102300E098
:10162C000123114A53607B68012283F821207B68D7
:10163C00002283F820207B685B6B002B03D07B6837
:10164C005B6B78689847FB7B18461037BD4680BDAE
:10165C00080002401C0002403000024044000240DE
:10166C00580002406C0002400000024080B48BB075
:10167C0000AF7860396000237B6200233B6269E134
:10168C0001227B6A02FA03F3FB613B681B68FA696F
:10169C001340BB61BA69FB699A4240F058813B68C0
:1016AC005B689A4A93425ED0984A934275D8984A9E
:1016BC00934258D0964A93426FD8964A934252D04E
:1016CC00944A934269D8944A93424CD0924A93429A
:1016DC0063D8924A934246D0904A93425DD8122BDB
:1016EC002AD8122B59D801A252F823F073170008EC
:1016FC004D1700085F170008A1170008A71700086E
:10170C00A7170008A7170008A7170008A7170008B5
:10171C00A7170008A7170008A7170008A7170008A5
:10172C00A7170008A7170008A7170008A717000895
:10173C005517000869170008794A934213D02CE01A
:10174C003B68DB683B6229E03B68DB6804333B6247
:10175C0024E03B68DB6808333B621FE03B68DB68D6
:10176C000C333B621AE03B689B68002B02D10423CC
:10177C003B6213E03B689B68012B05D108233B625D
:10178C007B68FA691A6109E008233B627B68FA6995
:10179C005A6103E000233B6200E000BFBB69FF2BF2
:1017AC0001D87B6801E07B6804337B61BB69FF2B4C
:1017BC0002D87B6A9B0002E07B6A083B9B003B6182
:1017CC007B691A680F213B6901FA03F3DB431A406A
:1017DC00396A3B6901FA03F31A437B691A603B6867
:1017EC005B6803F08053002B00F0B1804D4B9B697C
:1017FC004C4A43F0010393614A4B9B6903F001038C
:10180C00BB60BB68484A7B6A9B08023352F82330A2
:10181C00FB607B6A03F003039B000F2202FA03F3C5
:10182C00DB43FA681340FB607B68404A934213D059
:10183C007B683F4A93420DD07B683E4A934207D067
:10184C007B683D4A934201D1032306E0042304E064
:10185C00022302E0012300E000237A6A02F0030273
:10186C0092009340FA681343FB602F497B6A9B08F4
:10187C000233FA6841F823203B685B6803F4803339
:10188C00002B06D02D4B1A682C49BB6913430B60F7
:10189C0006E02A4B1A68BB69DB43284913400B60EE
:1018AC003B685B6803F40033002B06D0234B5A686B
:1018BC002249BB6913434B6006E0204B5A68BB6955
:1018CC00DB431E4913404B603B685B6803F4801399
:1018DC00002B06D0194B9A681849BB6913438B60CF
:1018EC0006E0164B9A68BB69DB43144913408B60C6
:1018FC003B685B6803F40013002B21D00F4BDA68B4
:10190C000E49BB691343CB6021E000BF00003210CD
:10191C0000003110000022100000211000001210F5
:10192C0000001110001002400000014000080140AE
:10193C00000C014000100140001401400004014063
:10194C000B4BDA68BB69DB4309491340CB607B6AFC
:10195C0001337B623B681A687B6A22FA03F3002B23
:10196C007FF48EAE00BF00BF2C37BD4680BC7047E5
:10197C000004014080B483B000AF78600B467B80DC
:10198C0013467B707B78002B03D07A887B681A61B6
:10199C0003E07B881A047B681A6100BF0C37BD46D4
:1019AC0080BC704780B584B000AF78607B68002B3A
:1019BC0001D101232BE17B6893F83D30DBB2002B86
:1019CC0006D17B68002283F83C207868FFF75EF82C
:1019DC007B68242283F83D207B681B681A687B682F
:1019EC001B6822F001021A607B681B681A687B680E
:1019FC001B6842F400421A607B681B681A687B689B
:101A0C001B6822F400421A6000F0EAFFF8607B6861
:101A1C005B68814A934207D8FB68804A934294BF23
:101A2C0001230023DBB206E0FB687D4A934294BF9E
:101A3C0001230023DBB2002B01D00123E7E0FB687C
:101A4C00784AA2FB03239B0CBB607B681B685B681A
:101A5C0023F03F017B681B68BA680A435A607B68B5
:101A6C001B681B6A23F03F017B685B686A4A9342E0
:101A7C0002D8BB68013309E0BB684FF4967202FBD5
:101A8C0003F3694AA2FB03239B0901337A681268AA
:101A9C000B4313627B681B68DB6923F44F4222F013
:101AAC00FF027B685B685C498B4219D8FB68591E46
:101ABC007B685B685B00B1FBF3F3591C40F6FC736D
:101ACC000B40002B0AD0FB68591E7B685B685B00DF
:101ADC00B1FBF3F30133C3F30B0351E004234FE0E9
:101AEC007B689B68002B11D1FB68581E7B6859687A
:101AFC000B465B000B44B0FBF3F30133C3F30B0356
:101B0C00002B0CBF01230023DBB212E0FB68581E34
:101B1C007B6859680B469B000B4499000B44B0FB47
:101B2C00F3F30133C3F30B03002B0CBF012300238E
:101B3C00DBB2002B01D0012322E07B689B68002BD9
:101B4C000ED1FB68581E7B6859680B465B000B4432
:101B5C00B0FBF3F30133C3F30B0343F400430FE087
:101B6C00FB68581E7B6859680B469B000B44990018
:101B7C000B44B0FBF3F30133C3F30B0343F44043C7
:101B8C00796809681343CB617B681B681B6823F079
:101B9C00C0017B68DA697B681B6A1A437B681B6827
:101BAC000A431A607B681B689B6823F4034323F089
:101BBC00FF037A6811697A68D26811437A681268EF
:101BCC000B4393607B681B68DB6823F0FF017B6829
:101BDC005A697B689B691A437B681B680A43DA6005
:101BEC007B681B681A687B681B6842F001021A60EC
:101BFC007B6800221A647B68202283F83D207B6876
:101C0C0000221A637B68002283F83E2000231846CA
:101C1C001037BD4680BD00BFA08601007F841E002A
:101C2C00FF083D0083DE1B43D34D621080B588B0A6
:101C3C0002AFF8607A601A460B467B8113463B81F3
:101C4C00FFF74CFB7861FB6893F83D30DBB2202B3F
:101C5C0040F0E0807B690093192301227049F868F9
:101C6C0000F064F90346002B01D00223D3E0FB689B
:101C7C0093F83C30012B01D10223CCE0FB6801220C
:101C8C0083F83C20FB681B681B6803F00103012BE5
:101C9C0007D0FB681B681A68FB681B6842F00102DE
:101CAC001A60FB681B681A68FB681B6822F40062E8
:101CBC001A60FB68212283F83D20FB68102283F810
:101CCC003E20FB6800221A64FB687A685A62FB6843
:101CDC003A895A85FB685B8D9AB2FB681A85FB685A
:101CEC00504ADA6279897B693A6AF86800F09CF8A4
:101CFC000346002B01D001238DE000233B61FB68E0
:101D0C001B685B693B61FB681B689B693B613B69BA
:101D1C0066E07A69396AF86800F0DEF90346002B50
:101D2C000DD0FB681B6C042B07D1FB681B681A6871
:101D3C00FB681B6842F400721A6001236BE0FB68BD
:101D4C005B6A1A78FB681B681A61FB685B6A5A1C31
:101D5C00FB685A62FB685B8D9BB2013B9AB2FB68D5
:101D6C005A85FB681B8D013B9AB2FB681A85FB6890
:101D7C001B685B6903F00403042B1BD1FB681B8DF0
:101D8C00002B17D0FB685B6A1A78FB681B681A611A
:101D9C00FB685B6A5A1CFB685A62FB685B8D9BB2E2
:101DAC00013B9AB2FB685A85FB681B8D013B9AB2CA
:101DBC00FB681A857A69396AF86800F0CEF903462F
:101DCC00002B0DD0FB681B6C042B07D1FB681B6828
:101DDC001A68FB681B6842F400721A6001231AE04F
:101DEC00FB681B8D002B94D1FB681B681A68FB6881
:101DFC001B6842F400721A60FB68202283F83D20B5
:101E0C00FB68002283F83E20FB68002283F83C200C
:101E1C00002300E0022318461837BD4680BD00BFE2
:101E2C00020010000000FFFF80B588B002AFF86020
:101E3C007A603B600B467B81FB68DB6A7B617B696C
:101E4C00082B06D07B69012B03D07B6913F5803FEF
:101E5C0008D1FB681B681A68FB681B6842F4807227
:101E6C001A600BE0FB681B6B122B07D1FB681B681D
:101E7C001A68FB681B6842F480721A603B68009316
:101E8C007B6800224FF00111F86800F04FF8034610
:101E9C00002B0DD0FB681B681B6803F48073B3F533
:101EAC00807F03D1FB684FF400721A64032335E082
:101EBC00FB681B69B3F5804F08D17B89DBB21A46EE
:101ECC00FB681B6802F0FE021A611BE07B89DB11C8
:101EDC00DBB203F00603DBB263F00F03DAB2FB688C
:101EEC001B681A613B687A680E49F86800F075F84F
:101EFC000346002B01D0012310E07B89DAB2FB688A
:101F0C001B681A613B687A680749F86800F065F845
:101F1C000346002B01D0012300E00023184618379C
:101F2C00BD4680BD080001000200010080B584B0F0
:101F3C0000AFF860B9603B601346FB7125E03B686D
:101F4C00B3F1FF3F21D0FFF7C9F90246BB69D31AA1
:101F5C003A689A4202D33B68002B16D1FB680022E8
:101F6C001A63FB68202283F83D20FB68002283F86B
:101F7C003E20FB681B6C43F02002FB681A64FB6874
:101F8C00002283F83C20012323E0BB681B0CDBB24E
:101F9C00012B0DD1FB681B685B69DA43BB681340EE
:101FAC009BB2002B0CBF01230023DBB21A460CE0C2
:101FBC00FB681B689B69DA43BB6813409BB2002B20
:101FCC000CBF01230023DBB21A46FB799A42B6D030
:101FDC00002318461037BD4680BD80B584B000AFD5
:101FEC00F860B9607A603B6051E0FB681B685B6924
:101FFC0003F48063B3F5806F23D1FB681B681A6808
:10200C00FB681B6842F400721A60FB681B686FF473
:10201C0080625A61FB6800221A63FB68202283F8F5
:10202C003D20FB68002283F83E20FB681B6C43F0CC
:10203C000402FB681A64FB68002283F83C2001232D
:10204C0046E07B68B3F1FF3F21D0FFF747F902462A
:10205C003B68D31A7A689A4202D37B68002B16D15C
:10206C00FB6800221A63FB68202283F83D20FB6882
:10207C00002283F83E20FB681B6C43F02002FB68B7
:10208C001A64FB68002283F83C20012320E0BB6823
:10209C001B0CDBB2012B0CD1FB681B685B69DA43B0
:1020AC00BB6813409BB2002B14BF01230023DBB28F
:1020BC000BE0FB681B689B69DA43BB6813409BB25F
:1020CC00002B14BF01230023DBB2002B8DD1002386
:1020DC0018461037BD4680BD80B584B000AFF8609F
:1020EC00B9607A602DE0F86800F078F80346002BB0
:1020FC0001D001232DE0BB68B3F1FF3F21D0FFF7E6
:10210C00EDF802467B68D31ABA689A4202D3BB68D0
:10211C00002B16D1FB6800221A63FB68202283F87F
:10212C003D20FB68002283F83E20FB681B6C43F0CB
:10213C002002FB681A64FB68002283F83C20012310
:10214C0007E0FB681B685B6903F08003802BCAD136
:10215C00002318461037BD4680BD80B584B000AF53
:10216C00F860B9607A602DE0F86800F037F8034643
:10217C00002B01D001232DE0BB68B3F1FF3F21D030
:10218C00FFF7ACF802467B68D31ABA689A4202D3BE
:10219C00BB68002B16D1FB6800221A63FB68202257
:1021AC0083F83D20FB68002283F83E20FB681B6C03
:1021BC0043F02002FB681A64FB68002283F83C2081
:1021CC00012307E0FB681B685B6903F00403042B25
:1021DC00CAD1002318461037BD4680BD80B483B0E9
:1021EC0000AF78607B681B685B6903F48063B3F5B0
:1021FC00806F1BD17B681B686FF480625A617B68AF
:10220C0000221A637B68202283F83D207B68002221
:10221C0083F83E207B681B6C43F004027B681A64D5
:10222C007B68002283F83C20012300E00023184641
:10223C000C37BD4680BC704780B586B000AF786067
:10224C007B68002B01D1012372E27B681B6803F0D1
:10225C000103002B00F08780924B5B6803F00C03AA
:10226C00042B0CD08F4B5B6803F00C03082B12D1A2
:10227C008C4B5B6803F48033B3F5803F0BD1894BF7
:10228C001B6803F40033002B6CD07B685B68002B5D
:10229C0068D101234CE27B685B68B3F5803F06D1C3
:1022AC00804B1B687F4A43F4803313602EE07B68BD
:1022BC005B68002B0CD17B4B1B687A4A23F4803370
:1022CC001360784B1B68774A23F4802313601DE05E
:1022DC007B685B68B3F5A02F0CD1724B1B68714AFD
:1022EC0043F4802313606F4B1B686E4A43F48033B6
:1022FC0013600BE06B4B1B686A4A23F4803313604A
:10230C00684B1B68674A23F4802313607B685B6807
:10231C00002B13D0FEF7E2FF386108E0FEF7DEFF7A
:10232C0002463B69D31A642B01D9032300E25D4BAF
:10233C001B6803F40033002BF0D014E0FEF7CEFF43
:10234C00386108E0FEF7CAFF02463B69D31A642BDA
:10235C0001D90323ECE1534B1B6803F40033002B2E
:10236C00F0D100E000BF7B681B6803F00203002B78
:10237C0063D04C4B5B6803F00C03002B0BD0494B28
:10238C005B6803F00C03082B1CD1464B5B6803F411
:10239C008033002B16D1434B1B6803F00203002B38
:1023AC0005D07B681B69012B01D00123C0E13D4B9B
:1023BC001B6823F0F8027B685B69DB003949134327
:1023CC000B603AE07B681B69002B20D0364B012256
:1023DC001A60FEF783FF386108E0FEF77FFF0246C4
:1023EC003B69D31A022B01D90323A1E12D4B1B68A6
:1023FC0003F00203002BF0D02A4B1B6823F0F802E9
:10240C007B685B69DB00274913430B6015E0264BA7
:10241C0000221A60FEF762FF386108E0FEF75EFFEB
:10242C0002463B69D31A022B01D9032380E11D4BD1
:10243C001B6803F00203002BF0D17B681B6803F0D0
:10244C000803002B3AD07B689B69002B19D0174BE3
:10245C0001221A60FEF742FF386108E0FEF73EFFEA
:10246C0002463B69D31A022B01D9032360E10D4BC1
:10247C005B6A03F00203002BF0D0012000F0D8FAC5
:10248C001CE00A4B00221A60FEF728FF38610FE0AF
:10249C00FEF724FF02463B69D31A022B08D903230B
:1024AC0046E100BF0010024000004242800442425C
:1024BC00924B5B6A03F00203002BE9D17B681B682B
:1024CC0003F00403002B00F0A6800023FB758B4B5C
:1024DC00DB6903F08053002B0DD1884BDB69874AF5
:1024EC0043F08053D361854BDB6903F08053BB60B1
:1024FC00BB680123FB75824B1B6803F48073002BB4
:10250C0018D17F4B1B687E4A43F480731360FEF72F
:10251C00E5FE386108E0FEF7E1FE02463B69D31A9E
:10252C00642B01D9032303E1754B1B6803F48073FF
:10253C00002BF0D07B68DB68012B06D16F4B1B6A3C
:10254C006E4A43F0010313622DE07B68DB68002BBD
:10255C000CD16A4B1B6A694A23F001031362674B67
:10256C001B6A664A23F0040313621CE07B68DB6879
:10257C00052B0CD1614B1B6A604A43F004031362B8
:10258C005E4B1B6A5D4A43F0010313620BE05B4B2D
:10259C001B6A5A4A23F001031362584B1B6A574AB1
:1025AC0023F0040313627B68DB68002B15D0FEF765
:1025BC0095FE38610AE0FEF791FE02463B69D31A9C
:1025CC0041F28832934201D90323B1E04B4B1B6A91
:1025DC0003F00203002BEED014E0FEF77FFE38610F
:1025EC000AE0FEF77BFE02463B69D31A41F28832C1
:1025FC00934201D903239BE0404B1B6A03F0020377
:10260C00002BEED1FB7D012B05D13C4BDB693B4A0A
:10261C0023F08053D3617B68DB69002B00F087804B
:10262C00364B5B6803F00C03082B61D07B68DB69CD
:10263C00022B46D1334B00221A60FEF74FFE386155
:10264C0008E0FEF74BFE02463B69D31A022B01D978
:10265C0003236DE0294B1B6803F00073002BF0D1B2
:10266C007B681B6AB3F5803F08D1244B5B6823F46D
:10267C0000327B689B68214913434B601F4B5B689E
:10268C0023F474127B68196A7B685B6A0B431B49E1
:10269C0013434B601B4B01221A60FEF71FFE38617F
:1026AC0008E0FEF71BFE02463B69D31A022B01D948
:1026BC0003233DE0114B1B6803F00073002BF0D09B
:1026CC0035E0104B00221A60FEF708FE386108E076
:1026DC00FEF704FE02463B69D31A022B01D90323F1
:1026EC0026E0064B1B6803F00073002BF0D11EE0B4
:1026FC007B68DB69012B07D1012319E00010024034
:10270C0000700040600042420B4B5B68FB60FB6852
:10271C0003F480327B681B6A9A4206D1FB6803F48F
:10272C0070127B685B6A9A4201D0012300E000239F
:10273C0018461837BD4680BD0010024080B584B0E5
:10274C0000AF786039607B68002B01D10123D0E0A9
:10275C006A4B1B6803F007033A689A4210D9674B1F
:10276C001B6823F0070265493B6813430B60634BFE
:10277C001B6803F007033A689A4201D00123B8E0C2
:10278C007B681B6803F00203002B20D07B681B685E
:10279C0003F00403002B05D0594B5B68584A43F4F3
:1027AC00E06353607B681B6803F00803002B05D0C3
:1027BC00534B5B68524A43F460535360504B5B6815
:1027CC0023F0F0027B689B684D4913434B607B6898
:1027DC001B6803F00103002B40D07B685B68012B66
:1027EC0007D1474B1B6803F40033002B15D1012391
:1027FC007FE07B685B68022B07D1414B1B6803F0C1
:10280C000073002B09D1012373E03D4B1B6803F0CF
:10281C000203002B01D101236BE0394B5B6823F0E1
:10282C0003027B685B68364913434B60FEF756FD29
:10283C00F8600AE0FEF752FD0246FB68D31A41F23B
:10284C008832934201D9032353E02D4B5B6803F08C
:10285C000C027B685B689B009A42EBD1274B1B6890
:10286C0003F007033A689A4210D2244B1B6823F0FA
:10287C00070222493B6813430B60204B1B6803F093
:10288C0007033A689A4201D0012332E07B681B6847
:10289C0003F00403002B08D0194B5B6823F4E062AF
:1028AC007B68DB68164913434B607B681B6803F03D
:1028BC000803002B09D0124B5B6823F460527B6831
:1028CC001B69DB000E4913434B6000F021F80246F4
:1028DC000B4B5B681B0903F00F030A49CB5C22FA14
:1028EC0003F3094A1360094B1B681846FEF7B4FC46
:1028FC00002318461037BD4680BD00BF00200240A3
:10290C0000100240185300080400002008000020AA
:10291C0090B48AB000AF294B3C1D0FCB84E80F005C
:10292C0040F201233B800023FB610023BB610023A9
:10293C007B6200237B6100233B62214B5B68FB6164
:10294C00FB6903F00C03042B02D0082B03D02BE003
:10295C001C4B3B622BE0FB699B0C03F00F032833F1
:10296C003B4413F8243C7B61FB6903F48033002B5C
:10297C0012D0134B5B685B0C03F0010328333B4410
:10298C0013F8283CBB617B690E4A03FB02F2BB695E
:10299C00B2FBF3F37B6204E07B690B4A02FB03F3AB
:1029AC007B627B6A3B6202E0064B3B6200BF3B6A88
:1029BC0018462837BD4690BC704700BF0853000826
:1029CC000010024000127A0000093D0080B400AFF4
:1029DC00024B1B681846BD4680BC704704000020A3
:1029EC0080B500AFFFF7F2FF0246054B5B681B0A90
:1029FC0003F007030349CB5C22FA03F3184680BDAE
:102A0C00001002402853000880B500AFFFF7DEFF2E
:102A1C000246054B5B68DB0A03F007030349CB5CFA
:102A2C0022FA03F3184680BD001002402853000818
:102A3C0080B485B000AF78600A4B1B680A4AA2FBD1
:102A4C0003235B0A7A6802FB03F3FB6000BFFB689D
:102A5C005A1EFA60002BF9D100BF00BF1437BD46D7
:102A6C0080BC704704000020D34D621080B582B04A
:102A7C0000AF78607B68002B01D1012376E07B6886
:102A8C005B6A002B08D17B685B68B3F5827F09D049
:102A9C007B680022DA6105E07B6800221A617B68A2
:102AAC0000225A617B6800229A627B6893F851304D
:102ABC00DBB2002B06D17B68002283F850207868AB
:102ACC00FEF726F97B68022283F851207B681B688D
:102ADC001A687B681B6822F040021A607B685B688E
:102AEC0003F482727B689B6803F404431A437B688B
:102AFC00DB6803F400631A437B681B6903F0020371
:102B0C001A437B685B6903F001031A437B689B697A
:102B1C0003F400731A437B68DB6903F038031A4330
:102B2C007B681B6A03F0800342EA03017B689B6AA3
:102B3C0003F400527B681B680A431A607B689B692C
:102B4C001A0C7B681B6802F004025A607B681B68D5
:102B5C00DA697B681B6822F40062DA617B68002208
:102B6C005A657B68012283F85120002318460837E8
:102B7C00BD4680BD80B588B000AFF860B9603B60E1
:102B8C001346FB800023FB77FB6893F85030012B36
:102B9C0001D1022326E1FB68012283F85020FEF7C5
:102BAC009DFBB861FB88FB82FB6893F85130DBB26C
:102BBC00012B02D00223FB770BE1BB68002B02D068
:102BCC00FB88002B02D10123FB7702E1FB68032277
:102BDC0083F85120FB6800225A65FB68BA681A63B7
:102BEC00FB68FA889A86FB68FA88DA86FB6800220A
:102BFC009A63FB6800229A87FB680022DA87FB68DD
:102C0C0000225A64FB6800221A64FB689B68B3F5C7
:102C1C00004F0FD1FB681B681A68FB681B6822F019
:102C2C0040021A60FB681B681A68FB681B6842F458
:102C3C0080421A60FB681B681B6803F04003402B42
:102C4C0007D0FB681B681A68FB681B6842F04002DF
:102C5C001A60FB68DB68B3F5006F4BD1FB685B68EF
:102C6C00002B02D0FB8A012B3ED1FB681B6B1A8810
:102C7C00FB681B68DA60FB681B6B9A1CFB681A63A9
:102C8C00FB68DB8E9BB2013B9AB2FB68DA862BE0C9
:102C9C00FB681B689B6803F00203022B12D1FB68D4
:102CAC001B6B1A88FB681B68DA60FB681B6B9A1C31
:102CBC00FB681A63FB68DB8E9BB2013B9AB2FB6824
:102CCC00DA8611E0FEF70AFB0246BB69D31A3A68B2
:102CDC009A4203D83B68B3F1FF3F02D13B68002B0B
:102CEC0002D10323FB7774E0FB68DB8E9BB2002BD5
:102CFC00CED14CE0FB685B68002B02D0FB8A012B29
:102D0C0040D1FB681A6BFB681B680C3312781A7085
:102D1C00FB681B6B5A1CFB681A63FB68DB8E9BB24F
:102D2C00013B9AB2FB68DA862CE0FB681B689B6857
:102D3C0003F00203022B13D1FB681A6BFB681B68B0
:102D4C000C3312781A70FB681B6B5A1CFB681A63E5
:102D5C00FB68DB8E9BB2013B9AB2FB68DA8611E012
:102D6C00FEF7BCFA0246BB69D31A3A689A4203D8FA
:102D7C003B68B3F1FF3F02D13B68002B02D1032328
:102D8C00FB7726E0FB68DB8E9BB2002BCDD1BA69BA
:102D9C003968F86800F0B8FB0346002B02D0FB68DA
:102DAC0020225A65FB689B68002B0AD100233B61EB
:102DBC00FB681B68DB683B61FB681B689B683B61BD
:102DCC003B69FB685B6D002B02D00123FB7700E0B5
:102DDC0000BFFB68012283F85120FB68002283F8B6
:102DEC005020FB7F18462037BD4680BD80B588B08B
:102DFC0002AFF860B9603B601346FB800023FB75A3
:102E0C00FB685B68B3F5827F12D1FB689B68002B73
:102E1C000ED1FB68042283F85120FA883B6800939A
:102E2C001346BA68B968F86800F0F1F80346EAE0AE
:102E3C00FB6893F85030012B01D10223E3E0FB68CF
:102E4C00012283F85020FEF749FA3861FB6893F8A9
:102E5C005130DBB2012B02D00223FB75CAE0BB68F8
:102E6C00002B02D0FB88002B02D10123FB75C1E0A3
:102E7C00FB68042283F85120FB6800225A65FB682A
:102E8C00BA689A63FB68FA889A87FB68FA88DA87CB
:102E9C00FB6800221A63FB6800229A86FB680022FA
:102EAC00DA86FB6800221A64FB6800225A64FB680D
:102EBC009B68B3F5004F0FD1FB681B681A68FB6861
:102ECC001B6822F040021A60FB681B681A68FB68DA
:102EDC001B6822F480421A60FB681B681B6803F0B5
:102EEC004003402B07D0FB681B681A68FB681B6803
:102EFC0042F040021A60FB68DB68002B62D12EE0C6
:102F0C00FB681B689B6803F00103012B15D1FB6860
:102F1C001B6803F10C02FB689B6B1278D2B21A701F
:102F2C00FB689B6B5A1CFB689A63FB68DB8F9BB23C
:102F3C00013B9AB2FB68DA8711E0FEF7CFF9024643
:102F4C003B69D31A3A689A4203D83B68B3F1FF3F06
:102F5C0002D13B68002B02D10323FB754AE0FB68CE
:102F6C00DB8F9BB2002BCBD131E0FB681B689B68DD
:102F7C0003F00103012B13D1FB681B68DA68FB68B3
:102F8C009B6B92B21A80FB689B6B9A1CFB689A63D2
:102F9C00FB68DB8F9BB2013B9AB2FB68DA8711E0CE
:102FAC00FEF79CF902463B69D31A3A689A4203D859
:102FBC003B68B3F1FF3F02D13B68002B02D10323E6
:102FCC00FB7517E0FB68DB8F9BB2002BCDD13A6908
:102FDC003968F86800F046FA0346002B02D0FB680B
:102FEC0020225A65FB685B6D002B02D00123FB7518
:102FFC0000E000BFFB68012283F85120FB6800222F
:10300C0083F85020FB7D18461837BD4680BD80B52F
:10301C008CB000AFF860B9607A607B800123FB62F2
:10302C00002387F82B30FB6893F85030012B01D12B
:10303C0002238AE1FB68012283F85020FEF74EF947
:10304C007862FB6893F8513087F82330FB685B6833
:10305C00FB617B887B8397F82330012B0FD0FB69B6
:10306C00B3F5827F07D1FB689B68002B03D197F8DF
:10307C002330042B03D0022387F82B305BE1BB6891
:10308C00002B05D07B68002B02D07B88002B03D152
:10309C00012387F82B304EE1FB6893F85130DBB2FB
:1030AC00042B03D0FB68052283F85120FB68002217
:1030BC005A65FB687A689A63FB687A88DA87FB68DA
:1030CC007A889A87FB68BA681A63FB687A88DA860A
:1030DC00FB687A889A86FB6800221A64FB680022D7
:1030EC005A64FB681B681B6803F04003402B07D035
:1030FC00FB681B681A68FB681B6842F040021A6088
:10310C00FB68DB68B3F5006F78D1FB685B68002B5C
:10311C0002D07B8B012B66D1FB681B6B1A88FB687A
:10312C001B68DA60FB681B6B9A1CFB681A63FB68F4
:10313C00DB8E9BB2013B9AB2FB68DA8653E0FB68EC
:10314C001B689B6803F00203022B1BD1FB68DB8E10
:10315C009BB2002B16D0FB6A012B13D1FB681B6BA7
:10316C001A88FB681B68DA60FB681B6B9A1CFB688F
:10317C001A63FB68DB8E9BB2013B9AB2FB68DA8662
:10318C000023FB62FB681B689B6803F00103012BA7
:10319C0019D1FB68DB8F9BB2002B14D0FB681B682A
:1031AC00DA68FB689B6B92B21A80FB689B6B9A1C6B
:1031BC00FB689A63FB68DB8F9BB2013B9AB2FB689E
:1031CC00DA870123FB62FEF789F802467B6AD31A81
:1031DC00BA6B9A4207D8BB6BB3F1FF3F03D0032302
:1031EC0087F82B30A7E0FB68DB8E9BB2002BA6D1B7
:1031FC00FB68DB8F9BB2002BA1D17CE0FB685B688A
:10320C00002B02D07B8B012B6BD1FB681A6BFB68FC
:10321C001B680C3312781A70FB681B6B5A1CFB680A
:10322C001A63FB68DB8E9BB2013B9AB2FB68DA86B1
:10323C0057E0FB681B689B6803F00203022B1CD150
:10324C00FB68DB8E9BB2002B17D0FB6A012B14D1D1
:10325C00FB681A6BFB681B680C3312781A70FB68DE
:10326C001B6B5A1CFB681A63FB68DB8E9BB2013B21
:10327C009AB2FB68DA860023FB62FB681B689B68CA
:10328C0003F00103012B19D1FB68DB8F9BB2002BE0
:10329C0014D0FB681B68DA68FB689B6BD2B21A709F
:1032AC00FB689B6B5A1CFB689A63FB68DB8F9BB2B9
:1032BC00013B9AB2FB68DA870123FB62FEF70EF83A
:1032CC0002467B6AD31ABA6B9A4203D8BB6BB3F132
:1032DC00FF3F02D1BB6B002B03D1032387F82B30AC
:1032EC0029E0FB68DB8E9BB2002BA2D1FB68DB8F45
:1032FC009BB2002B9DD17A6AB96BF86800F004F987
:10330C000346002B06D0012387F82B30FB682022C4
:10331C005A6510E0FB689B68002B0BD100237B6186
:10332C00FB681B68DB687B61FB681B689B687B61C7
:10333C007B6900E000BFFB68012283F85120FB6829
:10334C00002283F8502097F82B3018463037BD46B2
:10335C0080BD000080B588B000AFF860B9603B60FC
:10336C001346FB71FDF7BAFF0246BB6A9B1A3A681B
:10337C001344FB61FDF7B2FFB861394B1B685B016D
:10338C001B0DFA6902FB03F37B6154E03B68B3F15C
:10339C00FF3F50D0FDF7A2FF0246BB69D31AFA6972
:1033AC009A4202D9FB69002B3DD1FB681B685A6815
:1033BC00FB681B6822F0E0025A60FB685B68B3F59F
:1033CC00827F11D1FB689B68B3F5004F04D0FB687A
:1033DC009B68B3F5806F07D1FB681B681A68FB68A4
:1033EC001B6822F040021A60FB689B6AB3F5005F11
:1033FC000FD1FB681B681A68FB681B6822F400522B
:10340C001A60FB681B681A68FB681B6842F4005260
:10341C001A60FB68012283F85120FB68002283F8B4
:10342C005020032317E07B69002B01D10023FB61A3
:10343C007B69013B7B61FB681B689A68BB68134026
:10344C00BA689A420CBF01230023DBB21A46FB79FF
:10345C009A429BD1002318462037BD4680BD00BF41
:10346C000400002080B586B002AFF860B9607A60C5
:10347C00FB685B68B3F5827F11D1FB689B68B3F581
:10348C00004F04D0FB689B68B3F5806F07D1FB68D5
:10349C001B681A68FB681B6822F040021A60FB6804
:1034AC005B68B3F5827F17D1FB689B68B3F5806FBF
:1034BC0012D17B680093BB6800220121F868FFF7EA
:1034CC0049FF0346002B1AD0FB685B6D43F02002CA
:1034DC00FB685A65032313E07B680093BB680022EA
:1034EC008021F868FFF736FF0346002B07D0FB68F6
:1034FC005B6D43F02002FB685A65032300E0002358
:10350C0018461037BD4680BD80B586B002AFF86056
:10351C00B9607A607B680093BB6800228021F868F0
:10352C00FFF718FF0346002B07D0FB685B6D43F0D9
:10353C002002FB685A65032300E00023184610376D
:10354C00BD4680BD80B582B000AF78607B68002B33
:10355C0001D1012341E07B6893F83D30DBB2002BB5
:10356C0006D17B68002283F83C207868FDF712FDB9
:10357C007B68022283F83D207B681A687B680433E1
:10358C001946104600F070FA7B68012283F8462039
:10359C007B68012283F83E207B68012283F83F2060
:1035AC007B68012283F840207B68012283F841204C
:1035BC007B68012283F842207B68012283F8432038
:1035CC007B68012283F844207B68012283F8452024
:1035DC007B68012283F83D20002318460837BD463E
:1035EC0080BD000080B485B000AF78607B6893F834
:1035FC003D30DBB2012B01D001233AE07B68022283
:10360C0083F83D207B681B68DA687B681B6842F096
:10361C000102DA607B681B68184A93420ED07B6803
:10362C001B68B3F1804F09D07B681B68144A934226
:10363C0004D07B681B68134A934211D17B681B68CA
:10364C009B6803F00703FB60FB68062B10D07B68BC
:10365C001B681A687B681B6842F001021A6007E05D
:10366C007B681B681A687B681B6842F001021A6051
:10367C00002318461437BD4680BC7047002C01400F
:10368C00000400400008004080B582B000AF7860B4
:10369C007B681B681B6903F00203022B22D17B6839
:1036AC001B68DB6803F00203022B1BD17B681B68D1
:1036BC006FF002021A617B6801221A777B681B6823
:1036CC009B6903F00303002B03D0786800F0B1F979
:1036DC0005E0786800F0A4F9786800F0B3F97B682D
:1036EC0000221A777B681B681B6903F00403042B08
:1036FC0022D17B681B68DB6803F00403042B1BD10D
:10370C007B681B686FF004021A617B6802221A77CF
:10371C007B681B689B6903F44073002B03D07868AB
:10372C0000F087F905E0786800F07AF9786800F025
:10373C0089F97B6800221A777B681B681B6903F088
:10374C000803082B22D17B681B68DB6803F0080395
:10375C00082B1BD17B681B686FF008021A617B6811
:10376C0004221A777B681B68DB6903F00303002BC8
:10377C0003D0786800F05DF905E0786800F050F946
:10378C00786800F05FF97B6800221A777B681B6809
:10379C001B6903F01003102B22D17B681B68DB68BC
:1037AC0003F01003102B1BD17B681B686FF0100209
:1037BC001A617B6808221A777B681B68DB6903F443
:1037CC004073002B03D0786800F033F905E078687B
:1037DC0000F026F9786800F035F97B6800221A773A
:1037EC007B681B681B6903F00103012B0ED17B68FE
:1037FC001B68DB6803F00103012B07D17B681B6896
:10380C006FF001021A617868FDF7F8F97B681B68A4
:10381C001B6903F08003802B0ED17B681B68DB686F
:10382C0003F08003802B07D17B681B686FF080024C
:10383C001A61786800F077FA7B681B681B6903F0E3
:10384C004003402B0ED17B681B68DB6803F0400300
:10385C00402B07D17B681B686FF040021A617868B7
:10386C0000F0F9F87B681B681B6903F02003202B20
:10387C000ED17B681B68DB6803F02003202B07D17B
:10388C007B681B686FF020021A61786800F042FABE
:10389C0000BF0837BD4680BD80B584B000AF7860EE
:1038AC0039607B6893F83C30012B01D10223B3E0E3
:1038BC007B68012283F83C207B68022283F83D2040
:1038CC007B681B689B68FB60FB6823F07703FB60DD
:1038DC00FB6823F47F43FB607B681B68FA689A6083
:1038EC003B681B68B3F5005F3ED0B3F5005F00F298
:1038FC008780B3F5805F00F08580B3F5805F7FD85B
:10390C00702B1AD0702B7BD8602B50D0602B77D8B3
:10391C00502B3CD0502B73D8402B58D0402B6FD809
:10392C00302B64D0302B6BD8202B60D0202B67D859
:10393C00002B5CD0102B5AD062E07B6818683B6877
:10394C0099683B685A683B68DB6800F066F97B68ED
:10395C001B689B68FB60FB6843F07703FB607B682C
:10396C001B68FA689A604EE07B6818683B68996837
:10397C003B685A683B68DB6800F04FF97B681B6852
:10398C009A687B681B6842F480429A603BE07B68D3
:10399C0018683B6859683B68DB681A4600F0C6F843
:1039AC007B681B685021184600F01DF92BE07B68E2
:1039BC0018683B6859683B68DB681A4600F0E4F805
:1039CC007B681B686021184600F00DF91BE07B68D2
:1039DC0018683B6859683B68DB681A4600F0A6F823
:1039EC007B681B684021184600F0FDF80BE07B68F3
:1039FC001A683B681B681946104600F0F4F802E0A0
:103A0C0000BF00E000BF7B68012283F83D207B688B
:103A1C00002283F83C20002318461037BD4680BD99
:103A2C0080B483B000AF786000BF0C37BD4680BC5B
:103A3C00704780B483B000AF786000BF0C37BD46D0
:103A4C0080BC704780B483B000AF786000BF0C3787
:103A5C00BD4680BC704780B483B000AF786000BFB7
:103A6C000C37BD4680BC704780B485B000AF786021
:103A7C0039607B681B68FB607B68294A93420BD0DA
:103A8C007B68B3F1804F07D07B68264A934203D002
:103A9C007B68254A934208D1FB6823F07003FB60D6
:103AAC003B685B68FA681343FB607B681C4A934273
:103ABC000BD07B68B3F1804F07D07B68194A9342D7
:103ACC0003D07B68184A934208D1FB6823F44073F7
:103ADC00FB603B68DB68FA681343FB60FB6823F010
:103AEC0080023B685B691343FB607B68FA681A6071
:103AFC003B689A687B68DA623B681A687B689A62F2
:103B0C007B68074A934203D13B681A697B681A6346
:103B1C007B6801225A6100BF1437BD4680BC7047D8
:103B2C00002C0140000400400008004080B487B025
:103B3C0000AFF860B9607A60FB681B6A7B61FB6858
:103B4C001B6A23F00102FB681A62FB689B693B61EC
:103B5C003B6923F0F0033B617B681B013A6913431B
:103B6C003B617B6923F00A037B617A69BB68134371
:103B7C007B61FB683A699A61FB687A691A6200BFDB
:103B8C001C37BD4680BC704780B487B000AFF8606E
:103B9C00B9607A60FB681B6A23F01002FB681A623A
:103BAC00FB689B697B61FB681B6A3B617B6923F447
:103BBC0070437B617B681B037A6913437B613B69B0
:103BCC0023F0A0033B61BB681B013A6913433B61C3
:103BDC00FB687A699A61FB683A691A6200BF1C3704
:103BEC00BD4680BC704780B485B000AF786039604A
:103BFC007B689B68FB60FB6823F07003FB603A6892
:103C0C00FB68134343F00703FB607B68FA689A6018
:103C1C0000BF1437BD4680BC704780B487B000AF7E
:103C2C00F860B9607A603B60FB689B687B617B697C
:103C3C0023F47F437B613B681A027B681A43BB68A1
:103C4C0013437A6913437B61FB687A699A6000BFFE
:103C5C001C37BD4680BC704780B485B000AF78601F
:103C6C0039607B6893F83C30012B01D1022346E08C
:103C7C007B68012283F83C207B68022283F83D207C
:103C8C007B681B685B68FB607B681B689B68BB6020
:103C9C00FB6823F07003FB603B681B68FA681343F6
:103CAC00FB607B681B68FA685A607B681B68164A65
:103CBC0093420ED07B681B68B3F1804F09D07B68B0
:103CCC001B68124A934204D07B681B68104A9342CB
:103CDC000CD1BB6823F08003BB603B685B68BA689F
:103CEC001343BB607B681B68BA689A607B680122CF
:103CFC0083F83D207B68002283F83C200023184683
:103D0C001437BD4680BC7047002C014000040040B5
:103D1C000008004080B483B000AF786000BF0C375F
:103D2C00BD4680BC704780B483B000AF786000BFE4
:103D3C000C37BD4680BC704780B582B000AF786050
:103D4C007B68002B01D101233FE07B6893F83D3069
:103D5C00DBB2002B06D17B68002283F83C2078680C
:103D6C00FDF766F97B68242283F83D207B681B688D
:103D7C00DA687B681B6822F40052DA60786800F01D
:103D8C0085FC7B681B681A697B681B6822F490426F
:103D9C001A617B681B685A697B681B6822F02A02CF
:103DAC005A617B681B68DA687B681B6842F40052B6
:103DBC00DA607B6800221A647B68202283F83D203D
:103DCC007B68202283F83E20002318460837BD4626
:103DDC0080BD80B58AB002AFF860B9603B60134615
:103DEC00FB8000237B61FB6893F83D30DBB2202B1A
:103DFC007CD1BB68002B02D0FB88002B01D10123A6
:103E0C0075E0FB6893F83C30012B01D102236EE086
:103E1C00FB68012283F83C20FB6800221A64FB68D3
:103E2C00212283F83D20FDF759FA7861FB68FA8866
:103E3C009A84FB68FA88DA84FB689B68B3F5805F28
:103E4C0008D1FB681B69002B04D10023FB61BB6804
:103E5C00BB6103E0BB68FB610023BB61FB68002214
:103E6C0083F83C202AE03B6800937B690022802188
:103E7C00F86800F038FA0346002B01D0032336E033
:103E8C00FB69002B0BD1BB691B881A46FB681B68AE
:103E9C00C2F308025A60BB690233BB6107E0FB69DD
:103EAC001A78FB681B685A60FB690133FB61FB687D
:103EBC00DB8C9BB2013B9AB2FB68DA84FB68DB8C2F
:103ECC009BB2002BCFD13B6800937B690022402131
:103EDC00F86800F008FA0346002B01D0032306E033
:103EEC00FB68202283F83D20002300E002231846C3
:103EFC002037BD4680BD80B584B000AFF860B96096
:103F0C001346FB80FB6893F83E30DBB2202B1DD1AF
:103F1C00BB68002B02D0FB88002B01D1012316E0DB
:103F2C00FB6893F83C30012B01D102230FE0FB68B6
:103F3C00012283F83C20FB6800221A63FB881A4696
:103F4C00B968F86800F019FA034600E00223184635
:103F5C001037BD4680BD000080B58AB000AF7860D8
:103F6C007B681B681B687B627B681B68DB683B6239
:103F7C007B681B685B69FB610023BB6100237B6171
:103F8C007B6A03F00F03BB61BB69002B0DD17B6A0D
:103F9C0003F02003002B08D03B6A03F02003002B16
:103FAC0003D0786800F0C9FA7BE1BB69002B00F004
:103FBC00B180FB6903F00103002B05D13B6A03F4CC
:103FCC009073002B00F0A6807B6A03F00103002B9A
:103FDC000AD03B6A03F48073002B05D07B681B6C02
:103FEC0043F001027B681A647B6A03F00403002B24
:103FFC000AD0FB6903F00103002B05D07B681B6C16
:10400C0043F002027B681A647B6A03F00203002B04
:10401C000AD0FB6903F00103002B05D07B681B6CF5
:10402C0043F004027B681A647B6A03F00803002BDC
:10403C000FD03B6A03F02003002B04D1FB6903F083
:10404C000103002B05D07B681B6C43F008027B68D6
:10405C001A647B681B6C002B00F01E817B6A03F0DA
:10406C002003002B07D03B6A03F02003002B02D067
:10407C00786800F062FA7B681B685B6903F04003A8
:10408C00002B14BF01230023DBB27B617B681B6C0C
:10409C0003F00803002B02D17B69002B31D0786828
:1040AC0000F0A4F97B681B685B6903F04003002BEC
:1040BC0023D07B681B685A697B681B6822F040021E
:1040CC005A617B689B6B002B13D07B689B6B764A89
:1040DC005A637B689B6B1846FDF752FA0346002B1C
:1040EC0016D07B689B6B5B6B7A68926B104698471B
:1040FC000EE0786800F0E3F80AE0786800F0DFF88A
:10410C0006E0786800F0DBF87B6800221A64C3E0F4
:10411C0000BFC1E07B681B6B012B40F0A1807B6A68
:10412C0003F01003002B00F09B803B6A03F010039C
:10413C00002B00F095800023FB607B681B681B68DC
:10414C00FB607B681B685B68FB60FB687B681B68BB
:10415C005B6903F04003002B4ED07B689B6B1B68A4
:10416C005B683B823B8A002B00F098807B689B8DC0
:10417C003A8A9A4280F092807B683A8ADA857B6828
:10418C009B6B9B69202B2BD07B681B68DA687B6848
:10419C001B6822F48072DA607B681B685A697B6842
:1041AC001B6822F001025A617B681B685A697B68A4
:1041BC001B6822F040025A617B68202283F83E2063
:1041CC007B6800221A637B681B68DA687B681B6853
:1041DC0022F01002DA607B689B6B1846FDF795F9AC
:1041EC007B689A8D7B68DB8D9BB2D31A9BB2194688
:1041FC00786800F06DF851E07B689A8D7B68DB8DF8
:10420C009BB2D31A7B827B68DB8D9BB2002B47D091
:10421C007B8A002B44D07B681B68DA687B681B6840
:10422C0022F49072DA607B681B685A697B681B68A1
:10423C0022F001025A617B68202283F83E207B68C1
:10424C0000221A637B681B68DA687B681B6822F0A3
:10425C001002DA607B8A1946786800F039F81FE0A2
:10426C007B6A03F08003002B08D03B6A03F08003C9
:10427C00002B03D0786800F0F9F812E07B6A03F0A9
:10428C004003002B0DD03B6A03F04003002B08D0F9
:10429C00786800F03AF904E000BF02E000BF00E0EB
:1042AC0000BF2837BD4680BD5144000880B483B0A0
:1042BC0000AF786000BF0C37BD4680BC704780B43F
:1042CC0083B000AF786000BF0C37BD4680BC704730
:1042DC0080B483B000AF78600B467B8000BF0C3796
:1042EC00BD4680BC704780B584B000AFF860B96043
:1042FC003B601346FB712CE0BB69B3F1FF3F28D048
:10430C00BB69002B07D0FCF7E9FF02463B68D31AC8
:10431C00BA699A421DD2FB681B68DA68FB681B6895
:10432C0022F4D072DA60FB681B685A69FB681B6860
:10433C0022F001025A61FB68202283F83D20FB68C1
:10434C00202283F83E20FB68002283F83C200323C4
:10435C000FE0FB681B681A68BB681340BA689A4286
:10436C000CBF01230023DBB21A46FB799A42C3D05F
:10437C00002318461037BD4680BD80B485B000AF11
:10438C00F860B9601346FB80FB68BA689A62FB68F8
:10439C00FA889A85FB68FA88DA85FB6800221A6429
:1043AC00FB68222283F83E20FB68002283F83C2025
:1043BC00FB681B68DA68FB681B6842F48072DA6081
:1043CC00FB681B685A69FB681B6842F001025A6162
:1043DC00FB681B68DA68FB681B6842F02002DA6035
:1043EC00002318461437BD4680BC704780B483B098
:1043FC0000AF78607B681B68DA687B681B6822F406
:10440C009072DA607B681B685A697B681B6822F0C3
:10441C0001025A617B681B6B012B07D17B681B68FF
:10442C00DA687B681B6822F01002DA607B68202255
:10443C0083F83E207B6800221A6300BF0C37BD4610
:10444C0080BC704780B584B000AF78607B685B6AD5
:10445C00FB60FB680022DA85FB680022DA84F868CE
:10446C00FFF72DFF00BF1037BD4680BD80B485B06F
:10447C0000AF78607B6893F83D30DBB2212B3ED1E6
:10448C007B689B68B3F5805F14D17B681B69002B3C
:10449C0010D17B681B6AFB60FB681B881A467B6823
:1044AC001B68C2F308025A607B681B6A9A1C7B6803
:1044BC001A6208E07B681B6A591C7A6811621A78C8
:1044CC007B681B685A607B68DB8C9BB2013B9BB2A0
:1044DC007A681946D184002B0FD17B681B68DA6887
:1044EC007B681B6822F08002DA607B681B68DA68E4
:1044FC007B681B6842F04002DA60002300E0022374
:10450C0018461437BD4680BC704780B582B000AFEA
:10451C0078607B681B68DA687B681B6822F0400255
:10452C00DA607B68202283F83D207868FFF7BEFEB6
:10453C00002318460837BD4680BD80B586B000AF55
:10454C0078607B6893F83E30DBB2222B40F0998088
:10455C007B689B68B3F5805F17D17B681B69002B68
:10456C0013D100237B617B689B6A3B617B681B6872
:10457C005B689BB2C3F308039AB23B691A807B68F1
:10458C009B6A9A1C7B689A6226E07B689B6A7B61BB
:10459C0000233B617B689B68B3F5805F07D07B6829
:1045AC009B68002B0AD17B681B69002B06D17B68AA
:1045BC001B685B68DAB27B691A7008E07B681B6861
:1045CC005B68DBB203F07F03DAB27B691A707B683D
:1045DC009B6A5A1C7B689A627B68DB8D9BB2013BA1
:1045EC009BB27A681946D185002B48D17B681B6831
:1045FC00DA687B681B6822F02002DA607B681B6833
:10460C00DA687B681B6822F48072DA607B681B684E
:10461C005A697B681B6822F001025A617B68202270
:10462C0083F83E207B681B6B012B23D17B68002217
:10463C001A637B681B68DA687B681B6822F01002BF
:10464C00DA607B681B681B6803F01003102B0AD11F
:10465C000023FB607B681B681B68FB607B681B6826
:10466C005B68FB60FB687B689B8D19467868FFF77D
:10467C002FFE02E07868FCF7ADFA002302E000237D
:10468C0000E0022318461837BD4680BD80B584B0C3
:10469C0000AF78607B681B681B6923F440517B6812
:1046AC00DA687B681B680A431A617B689A687B68C6
:1046BC001B691A437B685B691343BB607B681B688F
:1046CC00DB6823F4B05323F00C037A681268B968E2
:1046DC000B43D3607B681B685B6923F440717B6878
:1046EC009A697B681B680A435A617B681B682C4A71
:1046FC00934203D1FEF788F9F86002E0FEF770F9F7
:10470C00F860FA6813469B0013449A001A447B68BD
:10471C005B689B00B2FBF3F3224AA2FB03235B0909
:10472C001901FA6813469B0013449A001A447B68DB
:10473C005B689B00B2FBF3F21A4BA3FB02035B0911
:10474C00642000FB03F3D31A1B013233154AA2FB7E
:10475C0003235B0903F0F0031944FA6813469B002A
:10476C0013449A001A447B685B689B00B2FBF3F21B
:10477C000C4BA3FB02035B09642000FB03F3D31A6D
:10478C001B013233074AA2FB03235B0903F00F0220
:10479C007B681B680A449A6000BF1037BD4680BD19
:1047AC00003801401F85EB510A22002100F0CEB8E1
:1047BC00014B1868704700BF1000002070B5002630
:1047CC000C4D0D4C641BA410A64209D100F022FD27
:1047DC0000260A4D0A4C641BA410A64205D170BDDC
:1047EC0055F8043B98470136EEE755F8043B9847DB
:1047FC000136F2E76454000864540008645400085D
:10480C006854000803460244934200D1704703F8F1
:10481C00011BF9E70EB46FF0004100B59CB01DAB65
:10482C0002900690079104910848094953F8042B0B
:10483C000591006802A9019300F0EEF80022029B9A
:10484C001A701CB05DF804EB03B070471000002028
:10485C000802FFFF012B2DE9F047804601D0242BE5
:10486C0006D9FFF7A5FF162303600020BDE8F087EB
:10487C000D46354F284615F8014BE65D16F0080637
:10488C00F8D12D2C2FD101262C78851C002B57D03C
:10489C00102B09D1302C07D1287800F0DF005828D4
:1048AC0049D110236C780235002706F1004E0EF129
:1048BC00FF3EBEFBF3F9384603FB19EAA4F1300CBA
:1048CC00BCF1090F14D86446A34222DD002F1DDB76
:1048DC0081451BD301D1A24518DB012700FB034006
:1048EC0015F8014BEAE72B2C04BF2C78851CCDE77F
:1048FC00A4F1410CBCF1190F01D8373CE4E7A4F149
:10490C00610CBCF1190F04D8573CDDE74FF0FF37B1
:10491C00E6E7002F07DA22237046C8F80030002A99
:10492C00A4D0691E05E006B14042002A9ED0002F9B
:10493C00F7D111609AE73024002BB5D10823B3E7E7
:10494C00302CA9D00A23AFE73153000813460A468E
:10495C00014602480068FFF77DBF00BF1000002031
:10496C002DE9F0478E6882469E420C4690461F46C3
:10497C0038D88A8912F4906F32D0256809690133CE
:10498C00A5EB010965694B4405EB450505EBD575B0
:10499C006D109D4238BF1D46530531D5294600F098
:1049AC006FFB064650B90C234FF0FF30CAF80030AD
:1049BC00A38943F04003A381BDE8F0874A462169EF
:1049CC0000F0CEFAA38923F4906343F08003A38113
:1049DC0026614E4426603E466561A5EB0905A5603F
:1049EC00BE4200D93E4632464146206800F0C6FA27
:1049FC00A36800209B1BA360236833442360DBE780
:104A0C002A4600F0B1FB06460028E1D15046216948
:104A1C0000F0CEFAC7E700002DE9F04F98468B89DD
:104A2C0007461B060D4614469DB00ED50B6963B99F
:104A3C00402100F025FB2860286120B90C233B6045
:104A4C004FF0FF30D1E040236B610023099320230A
:104A5C008DF8293030234FF00109CDF80C80DFF8A8
:104A6C00A4818DF82A3023469A4613F8012B0AB1FB
:104A7C00252AF9D1BAEB040B0BD05B46224629460A
:104A8C003846FFF76DFF013000F0AA80099A5A44AE
:104A9C0009929AF80030002B00F0A28000234FF00E
:104AAC00FF32CDE905230AF1010A049307938DF82F
:104ABC0053301A935446052214F8011B514800F048
:104ACC0041FA049AD8B9D00644BF20238DF853304C
:104ADC00110744BF2B238DF853309AF800302A2B42
:104AEC0015D0544600204FF00A0C079A214611F8B5
:104AFC00013B303B092B4ED9B0B1079214E0A0EB2F
:104B0C00080309FA03F31343A2460493D2E7039B69
:104B1C00191D1B680391002BBBBF5B4242F00202C4
:104B2C0007930793B8BF049223782E2B0CD163788C
:104B3C002A2B35D1039B02341A1D1B680392002BC0
:104B4C00B8BF4FF0FF330593DFF8BCA003225046EB
:104B5C00217800F0F7F940B14023A0EB0A0003FAEA
:104B6C0000F0049B01340343049314F8011B062248
:104B7C0026488DF8281000F0E5F9002838D0244B91
:104B8C001BBB039B073323F0070308330393099BD9
:104B9C003344099367E70C4601200CFB0232A5E76E
:104BAC0000234FF00A0C194601340593204610F8E7
:104BBC00012B303A092A03D9002BC5D00591C3E744
:104BCC00044601230CFB0121F0E703AB00932A46BA
:104BDC003846104B04A9AFF30080421C0646D6D1D0
:104BEC00AB895B063FF52CAF09981DB0BDE8F08F83
:104BFC0003AB00932A463846064B04A900F07CF818
:104C0C00EBE700BF31540008375400083B54000850
:104C1C00000000006D4900082DE9F0471646994642
:104C2C008A680B6907469342B8BF1346336091F804
:104C3C0043200C46DDF820800AB101333360236831
:104C4C00990642BF336802333360256815F00605B8
:104C5C0006D104F1190AE36832689B1AAB4228DCCE
:104C6C0094F84320131E226818BF012392062DD4FA
:104C7C004946384604F14302C047013020D023682E
:104C8C00E56803F00603042B18BF002532684FF0CB
:104C9C000006A36808BFAD1A226908BF25EAE575AE
:104CAC009342C4BF9B1AED181A34B5421AD1002096
:104CBC0008E00123524649463846C047013003D12B
:104CCC004FF0FF30BDE8F0870135C4E73020E11824
:104CDC0081F843005A1C94F845102244023382F8A0
:104CEC004310C5E70123224649463846C0470130E8
:104CFC00E6D00136D9E700002DE9FF470F7E91463B
:104D0C00782F80460C469A460C9D01F1430207D839
:104D1C00622F0AD8002F00F0D980582F00F0A48001
:104D2C0004F1420584F842703AE0A7F16303152BB5
:104D3C00F6D801A151F823F09D4D0008B14D0008A3
:104D4C002D4D00082D4D00082D4D00082D4D00084F
:104D5C00B14D00082D4D00082D4D00082D4D0008BB
:104D6C002D4D0008BF4E0008E14D0008A14E000873
:104D7C002D4D00082D4D0008E14E00082D4D00086A
:104D8C00E14D00082D4D00082D4D0008A94E0008DE
:104D9C002B681A1D1B682A6004F1420584F8423006
:104DAC000123A4E020682968060601F104030AD552
:104DBC000E682B60002E03DA2D23764284F84330E4
:104DCC000A235E4819E00E6810F0400F2B6018BFE4
:104DDC0036B2EFE72B682068191D2960010601D552
:104DEC001E6802E04606FBD51E886F2F0CBF0823F9
:104DFC000A235248002184F843106568002DA8BF8F
:104E0C002168A560A4BF21F0040121600EB9002D1A
:104E1C004DD01546B6FBF3F103FB1167C75D05F8E2
:104E2C00017D3746BB420E46F4D9082B0BD12368C3
:104E3C00DE0708D5236961689942DEBF302305F887
:104E4C00013C05F1FF35521B22614B462146404681
:104E5C00CDF800A003AAFFF7DFFE01304CD14FF0D4
:104E6C00FF3004B0BDE8F087344881F845702968FC
:104E7C00236851F8046B29601D0614D5DF0744BF65
:104E8C0043F0200323601EB9236823F02003236022
:104E9C001023AFE7236843F02003236078232848CE
:104EAC0084F84530E3E7590648BFB6B2E6E7154645
:104EBC00BBE72B682668181D6169286035061B68DE
:104ECC0001D5196002E07006FBD519800023154648
:104EDC002361BAE72B6800211A1D2A601D686268DD
:104EEC00284600F02FF808B1401B6060636823610E
:104EFC00002384F84330A8E72A46494640462369F4
:104F0C00D0470130ABD023689B0713D4E068039BD8
:104F1C009842B8BF1846A4E701233246494640469A
:104F2C00D04701309BD00135E36803995B1AAB4243
:104F3C00F2DCEBE7002504F11906F5E74254000812
:104F4C0053540008034610B5C9B2024493421846A4
:104F5C0001D1002003E0047801338C42F6D110BD5E
:104F6C000A44914200F1FF3300D1704710B511F89B
:104F7C00014B914203F8014FF9D110BD884210B595
:104F8C0001EB020402D98442234607D8431EA142F6
:104F9C0008D011F8012B03F8012FF8E70146024461
:104FAC008A4200D110BD13F8014D02F8014DF7E70C
:104FBC0038B50546002940D051F8043C0C1F002B95
:104FCC00B8BFE41800F010F91C4A136833B96360D9
:104FDC0014602846BDE8384000F00CB9A34208D94B
:104FEC00206821188B4201BF19685B680918216081
:104FFC00EDE71A465B680BB1A342FAD91168501859
:10500C00A0420BD120680144501883421160E0D1BA
:10501C0018685B68014411605360DAE702D90C230D
:10502C002B60D6E7206821188B4201BF19685B689A
:10503C000918216063605460CBE738BD240200205E
:10504C0070B50E4E0C463168054611B900F0BCF82F
:10505C0030602146284600F0B7F8431C0AD0C41C27
:10506C0024F00304A04207D0211A284600F0ACF823
:10507C00013001D14FF0FF34204670BD28020020D2
:10508C002DE9F041CD1C25F0030508350C2D38BF5A
:10509C000C25002D074601DBA94205D90C2300265F
:1050AC003B603046BDE8F0812E4E00F09DF8336831
:1050BC001C4634BB29463846FFF7C2FF431C044646
:1050CC004DD134682646002E40D1236831463846EF
:1050DC0004EB030800F078F880453AD121680335D9
:1050EC006D1A25F0030508350C2D38BF0C253846F4
:1050FC002946FFF7A5FF01302BD023682B442360F2
:10510C000EE02268521B1ED40B2A16D96119A34239
:10511C00256018BF5960636808BF316062514B60ED
:10512C00384604F10B0600F065F826F00706231D3F
:10513C00F21AB6D09B1BA350B3E76268A3420CBF14
:10514C0032605A60ECE723466468B2E7344676680E
:10515C00B9E70C2338463B6000F04CF8A1E725601A
:10516C00DEE700BF240200202DE9F0418046144602
:10517C000E4621B91146BDE8F041FFF781BF2AB9AF
:10518C00FFF716FF25462846BDE8F08100F038F8F9
:10519C008442074602D8B4EB500F12D82146404641
:1051AC00FFF76EFF05460028EDD0BC422246314683
:1051BC0028BF3A46FFF7D4FE31464046FFF7F8FECB
:1051CC00E1E73546DFE7000038B50023054D04461E
:1051DC0008462B60FBF756FE431C02D12B6803B12B
:1051EC00236038BD2C020020014800F011B800BF2C
:1051FC0030020020014800F00CB800BF3002002043
:10520C0051F8043C181F002BBCBF0B58C01870473A
:10521C0070477047F8B500BFF8BC08BC9E46704795
:0C522C00F8B500BFF8BC08BC9E467047F7
:1052380000000000256325630000000030300000F6
:1052480030310000303200003033000030340000CC
:1052580030350000303600003037000030380000AC
:1052680030390000313000003131000031320000A7
:105278003133000031340000313500003136000090
:1052880032320000300000002563256325630000EA
:1052980025632563256325630000000030000000B6
:1052A800256300002563256300000000256325634E
:1052B800256300002563256325632563000000003E
:1052C80020307825303278203078253032782030F8
:1052D80078253032780D0A003100000030000000D7
:1052E80042474C30303000004C00000053000000B2
:1052F80059000000440000004D0000004F0000006D
:1053080002030405060708090A0B0C0D0E0F1010FE
:10531800000000000000000001020304060708095D
:10532800000000000102030400202020202020208B
:10533800202028282828282020202020202020203D
:10534800202020202020202020881010101010104D
:105358001010101010101010100404040404040499
:105368000404041010101010101041414141414133
:105378000101010101010101010101010101010115
:105388000101010110101010101042424242424225
:1053980002020202020202020202020202020202E5
:1053A800020202021010101020000000000000008D
:1053B80000000000000000000000000000000000E5
:1053C80000000000000000000000000000000000D5
:1053D80000000000000000000000000000000000C5
:1053E80000000000000000000000000000000000B5
:1053F80000000000000000000000000000000000A5
:105408000000000000000000000000000000000094
:105418000000000000000000000000000000000084
:10542800000000000000000000232D302B20006841
:105438006C4C006566674546470030313233343579
:1054480036373839414243444546003031323334E7
:0C545800353637383961626364656600E0
:04546400310100080A
:045468000D0100082A
:10546C00F40100000024F400100000000100000012
:10547C0014000020000000000000000000000000EC
:10548C000000000000000000000000000000000010
:10549C000000000000000000000000000000000000
:1054AC0000000000000000000000000000000000F0
:1054BC0000000000000000000000000000000000E0
:1054CC0000000000000000000000000000000000D0
:0454DC0000000000CC
:04000005080011EDF1
:00000001FF
