:020000040800F2
:1000000000500020E5220008FD1C0008031D000828
:10001000091D00080F1D0008151D00080000000044
:100020000000000000000000000000001B1D000890
:10003000271D000800000000331D00083F1D0008B8
:100040002D2300082D2300082D2300082D23000850
:100050002D2300082D2300082D2300082D23000840
:100060002D2300082D2300082D2300082D23000830
:100070002D2300082D2300082D2300082D23000820
:100080002D2300082D2300082D2300082D23000810
:100090002D2300082D2300082D2300082D23000800
:1000A0002D2300082D2300082D2300082D230008F0
:1000B0004D1D00082D2300082D2300082D230008C6
:1000C0002D2300082D2300082D2300082D230008D0
:1000D0002D230008611D00082D2300082D23000892
:1000E0002D2300082D2300082D2300080000000008
:1000F0000000000000000000000000000000000000
:0C01000000000000000000005FF808F1A3
:1001100010B5054C237833B9044B13B10448AFF341
:1001200000800123237010BDE001002000000000CA
:10013000D887000808B5034B1BB103490348AFF348
:10014000008008BD00000000E4010020D8870008FE
:1001500010F8012B11F8013B012A28BF9A42F7D071
:10016000D01A7047034613F8012B002AFBD1181A46
:100170000138704781F0004102E000BF83F0004386
:1001800030B54FEA41044FEA430594EA050F08BF32
:1001900090EA020F1FBF54EA000C55EA020C7FEAF6
:1001A000645C7FEA655C00F0E2804FEA5454D4EB73
:1001B0005555B8BF6D420CDD2C4480EA020281EA3D
:1001C000030382EA000083EA010180EA020281EA75
:1001D0000303362D88BF30BD11F0004F4FEA0131C7
:1001E0004FF4801C4CEA113102D0404261EB4101D6
:1001F00013F0004F4FEA03334CEA133302D052425C
:1002000063EB430394EA050F00F0A780A4F1010417
:10021000D5F1200E0DDB02FA0EFC22FA05F2801851
:1002200041F1000103FA0EF2801843FA05F3594137
:100230000EE0A5F120050EF1200E012A03FA0EFCB6
:1002400028BF4CF0020C43FA05F3C01851EBE371E0
:1002500001F0004507D54FF0000EDCF1000C7EEBFD
:1002600000006EEB0101B1F5801F1BD3B1F5001F3B
:100270000CD349085FEA30004FEA3C0C04F101045A
:100280004FEA445212F5800F80F09A80BCF1004F83
:1002900008BF5FEA500C50F1000041EB045141EA05
:1002A000050130BD5FEA4C0C404141EB0101013CCE
:1002B00028BFB1F5801FE9D291F0000F04BF0146BD
:1002C0000020B1FA81F308BF2033A3F10B03B3F18F
:1002D00020020CDA0C3208DD02F1140CC2F10C021F
:1002E00001FA0CF021FA02F10CE002F11402D8BF7D
:1002F000C2F1200C01FA02F120FA0CFCDCBF41EA49
:100300000C019040E41AA2BF01EB0451294330BD17
:100310006FEA04041F3C1CDA0C340EDC04F11404F4
:10032000C4F1200220FA04F001FA02F340EA0300CB
:1003300021FA04F345EA030130BDC4F10C04C4F111
:10034000200220FA02F001FA04F340EA03002946F1
:1003500030BD21FA04F0294630BD94F0000F83F43B
:10036000801306BF81F480110134013D4EE77FEA1E
:10037000645C18BF7FEA655C29D094EA050F08BF6A
:1003800090EA020F05D054EA000C04BF194610464B
:1003900030BD91EA030F1EBF0021002030BD5FEA8F
:1003A000545C05D14000494128BF41F0004130BDB7
:1003B00014F580043CBF01F5801130BD01F000450B
:1003C00045F0FE4141F470014FF0000030BD7FEA7E
:1003D000645C1ABF194610467FEA655C1CBF0B4679
:1003E000024650EA013406BF52EA033591EA030F90
:1003F00041F4002130BD00BF90F0000F04BF002188
:10040000704730B54FF4806404F132044FF00005BA
:100410004FF0000150E700BF90F0000F04BF002133
:10042000704730B54FF4806404F1320410F0004599
:1004300048BF40424FF000013EE700BF42004FEA94
:10044000E2014FEA31014FEA02701FBF12F07F4311
:1004500093F07F4F81F06051704732F07F4208BFC8
:10046000704793F07F4F04BF41F40021704730B5CF
:100470004FF4607401F0004521F000411CE700BF1B
:1004800050EA010208BF704730B54FF000050AE09E
:1004900050EA010208BF704730B511F0004502D59F
:1004A000404261EB41014FF4806404F132045FEAA1
:1004B000915C3FF4D8AE4FF003025FEADC0C18BF4A
:1004C00003325FEADC0C18BF033202EBDC02C2F13C
:1004D000200300FA03FC20FA02F001FA03FE40EACE
:1004E0000E0021FA02F11444BDE600BF70B54FF0D2
:1004F000FF0C4CF4E06C1CEA11541DBF1CEA1355B0
:1005000094EA0C0F95EA0C0F00F0DEF82C4481EA17
:10051000030621EA4C5123EA4C5350EA013518BF37
:1005200052EA033541F4801143F4801338D0A0FB24
:1005300002CE4FF00005E1FB02E506F00042E0FBD1
:1005400003E54FF00006E1FB03569CF0000F18BFD7
:100550004EF0010EA4F1FF04B6F5007F64F540747F
:1005600004D25FEA4E0E6D4146EB060642EAC62112
:1005700041EA55514FEAC52040EA5E504FEACE2E7F
:10058000B4F1FD0C88BFBCF5E06F1ED8BEF1004F82
:1005900008BF5FEA500E50F1000041EB045170BDFE
:1005A00006F0004646EA010140EA020081EA030142
:1005B000B4EB5C04C2BFD4EB0C0541EA045170BD3E
:1005C00041F480114FF0000E013C00F3AB8014F1B8
:1005D000360FDEBF002001F0004170BDC4F1000401
:1005E000203C35DA0C341BDC04F11404C4F1200582
:1005F00000FA05F320FA04F001FA05F240EA0200DD
:1006000001F0004221F0004110EBD37021FA04F612
:1006100042EB06015EEA430E08BF20EAD37070BDCC
:10062000C4F10C04C4F1200500FA04F320FA05F02B
:1006300001FA04F240EA020001F0004110EBD3702D
:1006400041F100015EEA430E08BF20EAD37070BD9D
:10065000C4F1200500FA05F24EEA020E20FA04F376
:1006600001FA05F243EA020321FA04F001F0004125
:1006700021FA04F220EA020000EBD3705EEA430E96
:1006800008BF20EAD37070BD94F0000F0FD101F0C5
:100690000046400041EB010111F4801F08BF013CFE
:1006A000F7D041EA060195F0000F18BF704703F03C
:1006B0000046520043EB030313F4801F08BF013DC3
:1006C000F7D043EA0603704794EA0C0F0CEA13557F
:1006D00018BF95EA0C0F0CD050EA410618BF52EA39
:1006E0004306D1D181EA030101F000414FF000003F
:1006F00070BD50EA410606BF1046194652EA43064D
:1007000019D094EA0C0F02D150EA013613D195EAC0
:100710000C0F05D152EA03361CBF104619460AD108
:1007200081EA030101F0004141F0FE4141F4700112
:100730004FF0000070BD41F0FE4141F4780170BD02
:1007400070B54FF0FF0C4CF4E06C1CEA11541DBF67
:100750001CEA135594EA0C0F95EA0C0F00F0A7F869
:10076000A4EB050481EA030E52EA03354FEA013196
:1007700000F088804FEA03334FF0805545EA1313A9
:1007800043EA12634FEA022245EA111545EA106571
:100790004FEA00260EF000419D4208BF964244F108
:1007A000FD0404F5407402D25B084FEA3202B61A27
:1007B00065EB03055B084FEA32024FF480104FF4FB
:1007C000002CB6EB020E75EB030E22BFB61A75466F
:1007D00040EA0C005B084FEA3202B6EB020E75EB02
:1007E000030E22BFB61A754640EA5C005B084FEA6A
:1007F0003202B6EB020E75EB030E22BFB61A754637
:1008000040EA9C005B084FEA3202B6EB020E75EB41
:10081000030E22BFB61A754640EADC0055EA060E02
:1008200018D04FEA051545EA16754FEA06164FEA45
:10083000C30343EA52734FEAC2025FEA1C1CC0D1F1
:1008400011F4801F0BD141EA00014FF000004FF07E
:10085000004CB6E711F4801F04BF01430020B4F13F
:10086000FD0C88BFBCF5E06F3FF6AFAEB5EB030CF7
:1008700004BFB6EB020C5FEA500C50F1000041EBF4
:10088000045170BD0EF0004E4EEA113114EB5C04C1
:10089000C2BFD4EB0C0541EA045170BD41F4801194
:1008A0004FF0000E013C90E645EA060E8DE60CEA9C
:1008B000135594EA0C0F08BF95EA0C0F3FF43BAFB9
:1008C00094EA0C0F0AD150EA01347FF434AF95EA70
:1008D0000C0F7FF425AF104619462CE795EA0C0F54
:1008E00006D152EA03353FF4FDAE1046194622E721
:1008F00050EA410618BF52EA43067FF4C5AE50EAFB
:1009000041047FF40DAF52EA43057FF4EBAE12E7EA
:100910004FF0FF3C06E000BF4FF0010C02E000BFCB
:100920004FF0010C4DF804CD4FEA410C7FEA6C5CAE
:100930004FEA430C18BF7FEA6C5C1BD001B050EA51
:10094000410C0CBF52EA430C91EA030F02BF90EA3C
:10095000020F0020704710F1000F91EA030F58BFFB
:10096000994208BF90422CBFD8176FEAE37040F05D
:10097000010070474FEA410C7FEA6C5C02D150EAFB
:10098000013C07D14FEA430C7FEA6C5CD6D152EAB6
:10099000033CD3D05DF8040B704700BF844610467B
:1009A00062468C461946634600E000BF01B5FFF77A
:1009B000B7FF002848BF10F1000F01BD4DF808ED4A
:1009C000FFF7F4FF0CBF012000205DF808FB00BF1B
:1009D0004DF808EDFFF7EAFF34BF012000205DF875
:1009E00008FB00BF4DF808EDFFF7E0FF94BF0120C2
:1009F00000205DF808FB00BF4DF808EDFFF7CEFFC3
:100A000094BF012000205DF808FB00BF4DF808ED01
:100A1000FFF7C4FF34BF012000205DF808FB00BFD2
:100A20004FEA410C7FEA6C5C02D150EA013C0AD1EA
:100A30004FEA430C7FEA6C5C02D152EA033C02D1DC
:100A40004FF0000070474FF0010070474FEA41023D
:100A500012F5001215D211D56FF47873B3EB625210
:100A600012D94FEAC12343F0004343EA505311F037
:100A7000004F23FA02F018BF404270474FF00000C9
:100A8000704750EA013005D111F0004008BF6FF007
:100A9000004070474FF00000704700BF80F00040FA
:100AA00002E000BF81F0004142001FBF5FEA410346
:100AB00092EA030F7FEA226C7FEA236C6AD04FEA46
:100AC0001262D2EB1363C1BFD2184140484041408B
:100AD000B8BF5B42192B88BF704710F0004F40F43D
:100AE000000020F07F4018BF404211F0004F41F459
:100AF000000121F07F4118BF494292EA030F3FD025
:100B0000A2F1010241FA03FC10EB0C00C3F1200337
:100B100001FA03F100F0004302D5494260EB4000C6
:100B2000B0F5000F13D3B0F1807F06D340084FEA31
:100B3000310102F10102FE2A51D2B1F1004F40EB26
:100B4000C25008BF20F0010040EA0300704749008E
:100B500040EB0000013A28BFB0F5000FEDD2B0FA2B
:100B600080FCACF1080CB2EB0C0200FA0CF0AABF4E
:100B700000EBC25052421843BCBFD04018437047EC
:100B800092F0000F81F4000106BF80F400000132F2
:100B9000013BB5E74FEA41037FEA226C18BF7FEAC9
:100BA000236C21D092EA030F04D092F0000F08BF0B
:100BB0000846704790EA010F1CBF0020704712F0F2
:100BC0007F4F04D1400028BF40F00040704712F131
:100BD00000723CBF00F50000704700F0004343F096
:100BE000FE4040F4000070477FEA226216BF0846CC
:100BF0007FEA23630146420206BF5FEA412390EA8F
:100C0000010F40F4800070474FF0000304E000BF84
:100C100010F0004348BF40425FEA000C08BF704735
:100C200043F0964301464FF000001CE050EA0102F9
:100C300008BF70474FF000030AE000BF50EA01020E
:100C400008BF704711F0004302D5404261EB4101FB
:100C50005FEA010C02BF84460146002043F0B64320
:100C600008BFA3F18053A3F50003BCFA8CF2083A45
:100C7000A3EBC25310DB01FA02FC634400FA02FC4E
:100C8000C2F12002BCF1004F20FA02F243EB020055
:100C900008BF20F00100704702F1200201FA02FCB7
:100CA000C2F1200250EA4C0021FA02F243EB0200AA
:100CB00008BF20EADC7070474FF0FF0C1CEAD052EE
:100CC0001EBF1CEAD15392EA0C0F93EA0C0F6FD0AF
:100CD0001A4480EA010C400218BF5FEA41211ED08D
:100CE0004FF0006343EA501043EA5111A0FB013179
:100CF0000CF00040B1F5000F3EBF490041EAD3714E
:100D00005B0040EA010062F17F02FD2A1DD8B3F1C9
:100D1000004F40EBC25008BF20F00100704790F038
:100D2000000F0CF0004C08BF49024CEA502040EA8A
:100D300051207F3AC2BFD2F1FF0340EAC250704750
:100D400040F400004FF00003013A5DDC12F1190F8E
:100D5000DCBF00F000407047C2F10002410021FA00
:100D600002F1C2F1200200FA02FC5FEA310040F118
:100D7000000053EA4C0308BF20EADC70704792F091
:100D8000000F00F0004C02BF400010F4000F013AC9
:100D9000F9D040EA0C0093F0000F01F0004C02BFC4
:100DA000490011F4000F013BF9D041EA0C018FE733
:100DB0000CEAD15392EA0C0F18BF93EA0C0F0AD039
:100DC00030F0004C18BF31F0004CD8D180EA01005F
:100DD00000F00040704790F0000F17BF90F0004FF8
:100DE000084691F0000F91F0004F14D092EA0C0FDA
:100DF00001D142020FD193EA0C0F03D14B0218BF6D
:100E0000084608D180EA010000F0004040F0FE40B2
:100E100040F40000704740F0FE4040F4400070474E
:100E20004FF0FF0C1CEAD0521EBF1CEAD15392EACD
:100E30000C0F93EA0C0F69D0A2EB030280EA010CBD
:100E400049024FEA402037D04FF0805343EA111156
:100E500043EA10130CF000408B4238BF5B0042F1B4
:100E60007D024FF4000C8B4224BF5B1A40EA0C0059
:100E7000B3EB510F24BFA3EB510340EA5C00B3EB8B
:100E8000910F24BFA3EB910340EA9C00B3EBD10F79
:100E900024BFA3EBD10340EADC001B0118BF5FEACB
:100EA0001C1CE0D1FD2A3FF650AF8B4240EBC250F4
:100EB00008BF20F0010070470CF0004C4CEA5020B5
:100EC0007F32C2BFD2F1FF0340EAC250704740F404
:100ED00000004FF00003013A37E792F0000F00F0F6
:100EE000004C02BF400010F4000F013AF9D040EA74
:100EF0000C0093F0000F01F0004C02BF490011F408
:100F0000000F013BF9D041EA0C0195E70CEAD153FF
:100F100092EA0C0F08D142027FF47DAF93EA0C0FE6
:100F20007FF470AF084676E793EA0C0F04D14B02CA
:100F30003FF44CAF08466EE730F0004C18BF31F07C
:100F4000004CCAD130F000427FF45CAF31F0004376
:100F50007FF43CAF5FE700BF80B586B000AF78603C
:100F60007B6802331B787B617B6803331B783B61B2
:100F70006C4BFB603B697A696B49F86805F02CF9AA
:100F80006A49F868FFF7E4F80346002B04D14FF6EE
:100F9000FF7000F0FDF9C1E06549F868FFF7D8F887
:100FA0000346002B03D1012000F0F2F9B6E06149BD
:100FB000F868FFF7CDF80346002B03D1022000F0BC
:100FC000E7F9ABE05C49F868FFF7C2F80346002B8D
:100FD00003D1042000F0DCF9A0E05849F868FFF7DD
:100FE000B7F80346002B03D1082000F0D1F995E0B3
:100FF0005349F868FFF7ACF80346002B03D11020E3
:1010000000F0C6F98AE04F49F868FFF7A1F80346F7
:10101000002B03D1202000F0BBF97FE04A49F8689B
:10102000FFF796F80346002B03D1402000F0B0F9FB
:1010300074E04649F868FFF78BF80346002B03D1AC
:10104000802000F0A5F969E04149F868FFF780F8D1
:101050000346002B04D14FF4807000F099F95DE055
:101060003C49F868FFF774F80346002B04D14FF4AD
:10107000007000F08DF951E03749F868FFF768F823
:101080000346002B04D14FF4806000F081F945E065
:101090003249F868FFF75CF80346002B04D14FF49F
:1010A000006000F075F939E02D49F868FFF750F855
:1010B0000346002B04D14FF4805000F069F92DE075
:1010C0002849F868FFF744F80346002B04D14FF491
:1010D000005000F05DF921E02349F868FFF738F887
:1010E0000346002B04D14FF4804000F051F915E085
:1010F0001E49F868FFF72CF80346002B04D14FF483
:10110000004000F045F909E01949F868FFF720F8B8
:101110000346002B02D1012000F0FEF900BF183772
:10112000BD4680BDF0870008F4870008FC870008F2
:101130000088000804880008088800080C88000857
:101140001088000814880008188800081C88000807
:101150002088000824880008288800082C880008B7
:101160003088000834880008388800083C88000867
:101170004088000880B586B000AF78607B68023395
:101180001B787B617B6803331B783B616C4BFB6096
:101190003B697A696B49F86805F01EF86A49F86896
:1011A000FEF7D6FF0346002B04D14FF6FF7000F088
:1011B00029F9C1E06549F868FEF7CAFF0346002B2C
:1011C00003D1012000F01EF9B6E06149F868FEF78E
:1011D000BFFF0346002B03D1022000F013F9ABE060
:1011E0005C49F868FEF7B4FF0346002B03D10420E6
:1011F00000F008F9A0E05849F868FEF7A9FF034697
:10120000002B03D1082000F0FDF895E05349F86861
:10121000FEF79EFF0346002B03D1102000F0F2F8EA
:101220008AE04F49F868FEF793FF0346002B03D18D
:10123000202000F0E7F87FE04A49F868FEF788FFD1
:101240000346002B03D1402000F0DCF874E046494F
:10125000F868FEF77DFF0346002B03D1802000F0E5
:10126000D1F869E04149F868FEF772FF0346002BA8
:1012700004D14FF4807000F0C5F85DE03C49F86897
:10128000FEF766FF0346002B04D14FF4007000F018
:10129000B9F851E03749F868FEF75AFF0346002BCA
:1012A00004D14FF4806000F0ADF845E03249F868B1
:1012B000FEF74EFF0346002B04D14FF4006000F010
:1012C000A1F839E02D49F868FEF742FF0346002BEC
:1012D00004D14FF4805000F095F82DE02849F868CB
:1012E000FEF736FF0346002B04D14FF4005000F008
:1012F00089F821E02349F868FEF72AFF0346002B0E
:1013000004D14FF4804000F07DF815E01E49F868E4
:10131000FEF71EFF0346002B04D14FF4004000F0FF
:1013200071F809E01949F868FEF712FF0346002B2F
:1013300002D1002000F0F0F800BF1837BD4680BD94
:10134000F0870008F4870008FC8700080088000880
:1013500004880008088800080C8800081088000825
:1013600014880008188800081C88000820880008D5
:1013700024880008288800082C8800083088000885
:1013800034880008388800083C8800084088000835
:1013900080B584B002AF78607B681AB2154B1B88A9
:1013A0001BB213431BB29AB2124B1A80114B1B880B
:1013B000DAB2114B1A700F4B1B881B0A9BB2DAB2C0
:1013C0000D4B5A70002201210C4801F055FB4FF0E3
:1013D000FF3300930223084A4021094801F0A8FC8A
:1013E00001220121054801F047FB00BF0837BD4637
:1013F00080BD00BF00020020FC010020000C014065
:101400003802002080B584B002AF78607B68DB438F
:101410007B607B681AB2154B1B881BB213401BB252
:101420009AB2124B1A80114B1B88DAB2104B1A7009
:101430000E4B1B881B0A9BB2DAB20D4B5A7000226E
:1014400001210C4801F018FB4FF0FF3300930223F9
:10145000074A4021084801F06BFC012201210548A0
:1014600001F00AFB00BF0837BD4680BD0002002026
:10147000FC010020000C01403802002080B582B041
:1014800002AF214B1B88002B02D11F4B01221A8077
:101490001D4B1B88DAB21D4B1A701B4B1B881B0A95
:1014A0009BB2DAB2194B5A7000220121184801F0A0
:1014B000E3FA4FF0FF3300930223144A402115480A
:1014C00001F036FC01220121114801F0D5FA0E4B42
:1014D0001B88B3F5004F0DD90B4B1B885B009AB2EC
:1014E000094B1A80084B1B8843F001039AB2064B44
:1014F0001A8005E0044B1B885B009AB2024B1A80ED
:1015000000BFBD4680BD00BF00020020FC010020DE
:10151000000C01403802002080B483B000AF786036
:10152000034A7B68136000BF0C37BD4680BC704720
:101530000402002080B58CB002AF78607B68023373
:101540001B787B627B6803331B783B627B680433C8
:101550001B78FB617B6805331B78BB611349786A94
:10156000FEF7F6FD0346002B09D107F10800BB6921
:101570000093FB693A6A0E4904F02EFE0AE007F177
:101580000800BB690193FB6900933B6A7A6A0949C9
:1015900004F022FE07F10803184604F087F9034619
:1015A000054A136000BF2837BD4680BD4488000847
:1015B00048880008508800080000002080B586B0E8
:1015C00002AF78607B689B78FB737B68DB78BB73CA
:1015D0007B681B797B737B685B793B73FB7B2C4956
:1015E0001846FEF7B5FD0346002B33D1BB7B2849D7
:1015F0001846FEF7ADFD0346002B21D17B7B244925
:101600001846FEF7A5FD0346002B12D13B7B20496F
:101610001846FEF79DFD0346002B03D11D4B1C4AC7
:101620001A6023E03B7B1A461B491A4804F0D4FD9C
:101630001CE07A7B3B7B1949164804F0CDFD15E090
:10164000BA7B797B3B7B00930B461549114804F02C
:10165000C3FD0BE0F97BB87B7B7B3A7B0192009367
:1016600003460A460F490B4804F0B6FD094804F04A
:101670001DF903469BB2C3F30B030B4A13600A4BDD
:101680001B68184600F012F800BF1037BD4680BD39
:101690005C88000814020020608800086488000844
:1016A0006C880008748800081002002080B584B09F
:1016B00002AF786000220221104801F0DDF9104BE2
:1016C00000221A707B681B12DAB20D4B5A707B68CD
:1016D000DAB20B4B9A704FF0FF3300930323084AA2
:1016E000C621084801F024FB01220221034801F031
:1016F000C3F900BF0837BD4680BD00BF000C0140E4
:10170000080200203802002080B483B000AF786067
:10171000034A7B68136000BF0C37BD4680BC70472E
:101720003402002080B594B000AF0022042150485C
:1017300001F0A2F94F4B00221A70642301224D4997
:101740004D4802F099FA01220421494801F094F928
:1017500000220421464801F08FF94FF0FF330222A6
:101760004649454802F0C4FB01220421404801F0EB
:1017700083F94FF00003FB6403237B6431E04FF0F7
:101780000003BB6401227B6C02FA03F387F8333059
:101790003A4B5A7897F833301340DBB297F833203E
:1017A0009A4215D14FF07E53BB6400233B6409E09D
:1017B0004FF08041B86CFFF733FB0346BB643B6CD2
:1017C00001333B647B6CC3F107033A6C9A42EFDB55
:1017D000B96CF86CFFF768F90346FB647B6C013366
:1017E0007B647B6C062BCADD0023FB63234B1B78D9
:1017F0005BB2002B01DA0123FB63204B1B7803F063
:101800007F03DAB21D4B1A701C4B1B785B001B4A1E
:101810005278D209D2B213431846FFF7F9F90346BA
:10182000BB63F96CB86BFFF73FF90346BB63FB6B17
:10183000002B06D04FF08741B86BFFF733F9034612
:10184000BB63B86BFEF7FAFD02460B4638460C49FF
:1018500004F0C2FC78637B6B9AB239464FF0FF33D9
:10186000084803F038FB00BF5037BD4680BD00BFBD
:10187000000C014024020020AC0200202C020020B9
:10188000808800089403002080B586B000AF07F17F
:10189000080300221A605A609A60DA60174B9B694D
:1018A000164A43F008039361144B9B6903F0080345
:1018B0007B607B68114B9B69104A43F00403936182
:1018C0000E4B9B6903F004033B603B680022072139
:1018D0000B4801F0D1F80723BB600123FB60002314
:1018E0003B6102237B6107F108031946044800F0BD
:1018F0003FFF00BF1837BD4680BD00BF001002404B
:10190000000C014080B500AF124B134A1A60114B16
:10191000124A5A600F4B00229A600E4B0022DA6086
:101920000C4B4FF480421A610A4B00225A61094B5A
:1019300000229A61074B0022DA61064B00221A62EC
:10194000044801F0B1F80346002B01D000F01CF967
:1019500000BF80BD3802002000540040A086010076
:1019600080B588B000AF786007F1100300221A60DC
:101970005A609A60DA607B681B68154A934223D1EB
:10198000144B9B69134A43F008039361114B9B6905
:1019900003F00803FB60FB68C0233B6112237B61FB
:1019A0000323FB6107F1100319460B4800F0E0FE2A
:1019B000084BDB69074A43F40013D361054BDB692D
:1019C00003F40013BB60BB6800BF2037BD4680BD79
:1019D0000054004000100240000C014080B500AFF0
:1019E00000F0A6FC00F022F8FFF74EFF00F0F8FA36
:1019F000FFF788FF00F0CEF800F082FA00F01AFB43
:101A000006220749074803F0F8FA074802F06CFE7F
:101A10004FF6FF70FFF7F6FC0020FFF747FEFEE7EA
:101A20008C020020500300200803002080B590B0F5
:101A300000AF07F1180328220021184603F064FFC5
:101A40003B1D00221A605A609A60DA601A61022314
:101A5000BB610123BB621023FB6202237B63002373
:101A6000BB634FF4C013FB6307F11803184601F082
:101A700065FC0346002B01D000F086F80F237B6045
:101A80000223BB600023FB6000233B6100237B61DA
:101A90003B1D0121184601F0D3FE0346002B01D067
:101AA00000F072F800BF4037BD4680BD80B584B0FD
:101AB00000AF78607B68084A934208D1074800F07D
:101AC00073FBF860FB68002B01D000F047F800BF03
:101AD0001037BD4680BD00BF500300208C0200209F
:101AE00080B582B000AF78607B68164A934225D1FA
:101AF000154B1B680133144A1360144B1B680133E8
:101B0000124A1360124B1B68002B0AD00E4B1A6846
:101B1000104B1B689A4204DB0B4B00221A60FFF744
:101B2000ADFC0D4B1B68002B08D0084B1B68632BCA
:101B300004DD064B00221A60FFF7F4FD00BF0837F2
:101B4000BD4680BD08030020A4020020A80200209A
:101B500004020020000000203402002080B500AF05
:101B60004FF0FF3301220549054803F0B4F906227E
:101B70000449034803F041FA00BF80BD888800088B
:101B8000500300208C02002080B400AF72B600BF6A
:101B9000FEE7000080B500AF174B184A1A60164BDD
:101BA0004FF482725A60144B00229A60124B00224A
:101BB000DA60114B00221A610F4B00225A610E4B62
:101BC0004FF400729A610C4B2022DA610A4B00221A
:101BD0001A62094B00225A62074B00229A62064B96
:101BE0000A22DA62044801F0C3FF0346002B01D049
:101BF000FFF7CAFF00BF80BDAC02002000380040E4
:101C000080B588B000AF786007F1100300221A6039
:101C10005A609A60DA607B681B681C4A934231D133
:101C20001B4BDB691A4A43F48043D361184BDB69D1
:101C300003F48043FB60FB68154B9B69144A43F037
:101C400008039361124B9B6903F00803BB60BB68F8
:101C50004FF420433B6102237B610323FB6107F1C7
:101C6000100319460B4800F083FD4FF480433B619D
:101C700000237B610023BB6107F11003194605486F
:101C800000F076FD00BF2037BD4680BD0038004023
:101C900000100240000C014080B485B000AF154B2D
:101CA0009B69144A43F001039361124B9B6903F053
:101CB0000103BB60BB680F4BDB690E4A43F08053E6
:101CC000D3610C4BDB6903F080537B607B680A4B6C
:101CD0005B68FB60FB6823F0E063FB60FB6843F03C
:101CE0008063FB60044AFB68536000BF1437BD4645
:101CF00080BC7047001002400000014080B400AF7B
:101D0000FEE780B400AFFEE780B400AFFEE780B42A
:101D100000AFFEE780B400AFFEE780B400AF00BFC5
:101D2000BD4680BC704780B400AF00BFBD4680BCDC
:101D3000704780B400AF00BFBD4680BC704780B51F
:101D400000AF00F03BFB00BF80BD000080B500AFDE
:101D5000024802F01BFD00BF80BD00BF0803002049
:101D600080B500AF024803F079F900BF80BD00BF25
:101D70005003002080B400AF01231846BD4680BC4C
:101D8000704780B582B000AF7860396003F092FD93
:101D9000034616221A604FF0FF3318460837BD4637
:101DA00080BD80B582B000AF78604FF0FF317868B9
:101DB000FFF7E7FFFEE780B586B000AFF860B960D7
:101DC0007A6000237B610AE0AFF300800146BB68C4
:101DD0005A1CBA60CAB21A707B6901337B617A6996
:101DE0007B689A42F0DB7B6818461837BD4680BD99
:101DF00080B586B000AFF860B9607A6000237B617F
:101E000009E0BB685A1CBA601B781846AFF3008023
:101E10007B6901337B617A697B689A42F1DB7B687D
:101E200018461837BD4680BD80B483B000AF7860D7
:101E30004FF0FF3318460C37BD4680BC704780B466
:101E400083B000AF786039603B684FF400525A604D
:101E5000002318460C37BD4680BC704780B483B061
:101E600000AF7860012318460C37BD4680BC704730
:101E700080B485B000AFF860B9607A60002318467E
:101E80001437BD4680BC704780B586B000AF78601F
:101E9000144A154BD31A7B617B693B61134B1B685A
:101EA000002B02D1114B124A1A60104B1A687B6842
:101EB00013443A699A4207D203F0FCFC03460C2211
:101EC0001A604FF0FF3309E0084B1B68FB60074BBB
:101ED0001A687B681344054A1360FB681846183774
:101EE000BD4680BD00500020000400000403002017
:101EF000F003002080B400AF00BFBD4680BC704737
:101F000080B586B000AF07F1080300221A605A605E
:101F10009A60DA603B4600221A605A601D4B4FF00F
:101F200080421A601B4B1F225A601A4B00229A6093
:101F3000184B40F2E732DA60164B00221A61154B5B
:101F400000229A61134802F07FFB0346002B01D068
:101F5000FFF71AFE4FF48053BB6007F108031946E0
:101F60000C4802F01BFD0346002B01D0FFF70CFECE
:101F700000233B6000237B603B461946054802F086
:101F8000EDFE0346002B01D0FFF7FEFD00BF183722
:101F9000BD4680BD0803002080B584B000AF7860E6
:101FA0007B681B68B3F1804F13D10C4BDB690B4A84
:101FB00043F00103D361094BDB6903F00103FB60CC
:101FC000FB68002200211C2000F0EBFA1C2000F02E
:101FD00004FB00BF1037BD4680BD00BF00100240AB
:101FE00080B500AF114B124A1A60104B4FF4E1322A
:101FF0005A600E4B00229A600C4B0022DA600B4BA9
:1020000000221A61094B0C225A61084B00229A6186
:10201000064B0022DA61054802F010FF0346002B50
:1020200001D0FFF7B1FD00BF80BD00BF500300200D
:102030000038014080B500AF114B124A1A60104BB6
:102040004FF4E1325A600E4B00229A600C4B002292
:10205000DA600B4B00221A61094B08225A61084BC7
:1020600000229A61064B0022DA61054802F0E6FE82
:102070000346002B01D0FFF787FD00BF80BD00BFE6
:10208000940300200048004080B58AB000AF78601B
:1020900007F1180300221A605A609A60DA607B68C0
:1020A0001B683C4A93423AD13B4B9B693A4A43F402
:1020B00080439361384B9B6903F480437B617B6968
:1020C000354B9B69344A43F004039361324B9B695F
:1020D00003F004033B613B694FF40073BB610223CF
:1020E000FB6103237B6207F1180319462B4800F0BC
:1020F0003FFB4FF48063BB610023FB6100233B6225
:1021000007F118031946254800F032FB0022002190
:10211000252000F046FA252000F05FFA36E07B68C3
:102120001B681F4A934231D11B4BDB691A4A43F4A7
:102130008023D361184BDB6903F48023FB60FB68C9
:10214000154B9B69144A43F008039361124B9B693A
:1021500003F00803BB60BB684FF48063BB610223DC
:10216000FB6103237B6207F1180319460D4800F059
:10217000FFFA4FF40063BB610023FB6100233B6265
:1021800007F118031946074800F0F2FA00BF283794
:10219000BD4680BD003801400010024000080140EB
:1021A00000480040000C014080B586B000AF786068
:1021B0007B681B783B617B6801331B78FB600023E5
:1021C0007B6141497868FDF7C3FF0346002B02D1CC
:1021D00001237B6173E007F110033C491846FDF7CA
:1021E000B7FF0346002B2CD107F10C0338491846E2
:1021F000FDF7AEFF0346002B05D17868FEF7BAFF66
:1022000001237B615BE007F10C0332491846FDF7BF
:102210009FFF0346002B05D17868FEF79DFE012342
:102220007B614CE007F10C032B491846FDF790FF4A
:102230000346002B43D17868FFF77CF901237B61CB
:102240003DE007F1100325491846FDF781FF0346DD
:10225000002B0ED107F10C031D491846FDF778FF3E
:102260000346002B2BD17868FFF7A8F901237B6187
:1022700025E007F1100316491846FDF769FF0346EC
:10228000002B1CD107F10C0315491846FDF760FF20
:102290000346002B05D10120FFF736FA01237B61AD
:1022A0000DE007F10C030C491846FDF751FF0346FA
:1022B000002B04D10020FFF727FA01237B617B6903
:1022C00018461837BD4680BD8C88000894880008E1
:1022D000988800089C880008A0880008A488000846
:1022E000A88800080C480D490D4A002302E0D45884
:1022F000C4500433C4188C42F9D30A4A0A4C002350
:1023000001E013600432A242FBD3FFF7F3FD03F0B8
:10231000D7FAFFF763FB704700000020E0010020C0
:10232000BC8C0008E0010020EC030020FEE7000068
:1023300080B500AF084B1B68074A43F010031360D9
:10234000032000F023F90F2000F008F8FFF7A4FCA9
:102350000023184680BD00BF0020024080B582B037
:1023600000AF7860124B1A68124B1B7819464FF475
:102370007A73B3FBF1F3B2FBF3F3184600F03BF9C9
:102380000346002B01D001230EE07B680F2B0AD8F7
:10239000002279684FF0FF3000F003F9064A7B68AD
:1023A0001360002300E0012318460837BD4680BDB6
:1023B000040000200C0000200800002080B400AFC2
:1023C000054B1B781A46054B1B681344034A1360E0
:1023D00000BFBD4680BC70470C000020D803002021
:1023E00080B400AF024B1B681846BD4680BC7047E6
:1023F000D803002080B485B000AF78607B6803F01C
:102400000703FB600C4BDB68BB60BA684FF6FF0349
:102410001340BB60FB681A02BB68134343F0BF6301
:1024200043F40033BB60044ABB68D36000BF143779
:10243000BD4680BC704700BF00ED00E080B400AF37
:10244000044BDB681B0A03F007031846BD4680BC3B
:10245000704700BF00ED00E080B483B000AF0346DA
:10246000FB7197F90730002B0BDBFB7903F01F02A0
:10247000064997F907305B09012000FA02F241F89A
:10248000232000BF0C37BD4680BC704700E100E050
:1024900080B483B000AF03463960FB7197F9073011
:1024A000002B0ADB3B68DAB20C4997F907301201BE
:1024B000D2B20B4483F800230AE03B68DAB2084941
:1024C000FB7903F00F03043B1201D2B20B441A76DE
:1024D00000BF0C37BD4680BC704700BF00E100E084
:1024E00000ED00E080B489B000AFF860B9607A60B8
:1024F000FB6803F00703FB61FB69C3F10703042BCF
:1025000028BF0423BB61FB690433062B02D9FB6996
:10251000033B00E000237B614FF0FF32BB6902FA0E
:1025200003F3DA43BB681A407B699A404FF0FF31EE
:102530007B6901FA03F3D9437B680B4013431846C8
:102540002437BD4680BC704780B582B000AF78604C
:102550007B68013BB3F1807F01D301230FE00A4A7E
:102560007B68013B53600F214FF0FF30FFF790FF76
:10257000054B00229A60044B07221A60002318467C
:102580000837BD4680BD00BF10E000E080B582B0D6
:1025900000AF78607868FFF72DFF00BF0837BD46B1
:1025A00080BD80B586B000AF0346B9607A60FB732A
:1025B00000237B61FFF742FF78617A68B968786928
:1025C000FFF790FF024697F90F3011461846FFF7C4
:1025D0005FFF00BF1837BD4680BD80B582B000AF39
:1025E0000346FB7197F907301846FFF735FF00BF28
:1025F0000837BD4680BD80B582B000AF786078688E
:10260000FFF7A2FF034618460837BD4680BD80B4D9
:1026100085B000AF78600023FB737B6893F82130AE
:10262000022B08D07B6804229A637B68002283F81F
:102630002020012320E07B681B681A687B681B68E8
:1026400022F00E021A607B681B681A687B681B68A0
:1026500022F001021A607B681A6C7B68DB6B012137
:1026600001FA02F25A607B68012283F821207B681C
:10267000002283F82020FB7B18461437BD4680BC1F
:102680007047000080B584B000AF78600023FB7312
:102690007B6893F82130022B05D07B6804229A6373
:1026A0000123FB7351E07B681B681A687B681B6819
:1026B00022F00E021A607B681B681A687B681B6830
:1026C00022F001021A607B681B68224A934229D0DB
:1026D0007B681B68204A934222D07B681B681F4A94
:1026E00093421AD07B681B681D4A934212D07B68C4
:1026F0001B681C4A93420AD07B681B681A4A9342A3
:1027000002D14FF480130EE04FF080730BE04FF4D2
:10271000803308E04FF4805305E04FF4807302E00B
:10272000102300E00123114A53607B68012283F8E3
:1027300021207B68002283F820207B685B6B002BC4
:1027400003D07B685B6B78689847FB7B1846103733
:10275000BD4680BD080002401C000240300002401F
:1027600044000240580002406C0002400000024059
:1027700080B48BB000AF7860396000237B620023A7
:102780003B6269E101227B6A02FA03F3FB613B6869
:102790001B68FA691340BB61BA69FB699A4240F051
:1027A00058813B685B689A4A93425ED0984A93424C
:1027B00075D8984A934258D0964A93426FD8964A11
:1027C000934252D0944A934269D8944A93424CD04F
:1027D000924A934263D8924A934246D0904A934297
:1027E0005DD8122B2AD8122B59D801A252F823F007
:1027F0006B28000845280008572800089928000879
:102800009F2800089F2800089F2800089F2800088C
:102810009F2800089F2800089F2800089F2800087C
:102820009F2800089F2800089F2800089F2800086C
:102830009F2800084D28000861280008794A934223
:1028400013D02CE03B68DB683B6229E03B68DB6827
:1028500004333B6224E03B68DB6808333B621FE0E3
:102860003B68DB680C333B621AE03B689B68002BDB
:1028700002D104233B6213E03B689B68012B05D126
:1028800008233B627B68FA691A6109E008233B620E
:102890007B68FA695A6103E000233B6200E000BFF5
:1028A000BB69FF2B01D87B6801E07B6804337B6147
:1028B000BB69FF2B02D87B6A9B0002E07B6A083B66
:1028C0009B003B617B691A680F213B6901FA03F3A6
:1028D000DB431A40396A3B6901FA03F31A437B6907
:1028E0001A603B685B6803F08053002B00F0B180F6
:1028F0004D4B9B694C4A43F0010393614A4B9B69E2
:1029000003F00103BB60BB68484A7B6A9B08023343
:1029100052F82330FB607B6A03F003039B000F2215
:1029200002FA03F3DB43FA681340FB607B68404A1A
:10293000934213D07B683F4A93420DD07B683E4A56
:10294000934207D07B683D4A934201D1032306E0BE
:10295000042304E0022302E0012300E000237A6A5A
:1029600002F0030292009340FA681343FB602F4980
:102970007B6A9B080233FA6841F823203B685B6856
:1029800003F48033002B06D02D4B1A682C49BB6909
:1029900013430B6006E02A4B1A68BB69DB432849E6
:1029A00013400B603B685B6803F40033002B06D0D8
:1029B000234B5A682249BB6913434B6006E0204B06
:1029C0005A68BB69DB431E4913404B603B685B6838
:1029D00003F48013002B06D0194B9A681849BB6981
:1029E00013438B6006E0164B9A68BB69DB431449BE
:1029F00013408B603B685B6803F40013002B21D00D
:102A00000F4BDA680E49BB691343CB6021E000BF6E
:102A100000003210000031100000221000002110D0
:102A200000001210000011100010024000000140D0
:102A300000080140000C014000100140001401405A
:102A4000000401400B4BDA68BB69DB4309491340C2
:102A5000CB607B6A01337B623B681A687B6A22FA2F
:102A600003F3002B7FF48EAE00BF00BF2C37BD46B2
:102A700080BC70470004014080B483B000AF786030
:102A80000B467B8013467B707B78002B03D07A88C3
:102A90007B681A6103E07B881A047B681A6100BFB7
:102AA0000C37BD4680BC704780B584B000AF7860FD
:102AB0007B68002B01D101232BE17B6893F83D302B
:102AC000DBB2002B06D17B68002283F83C207868BB
:102AD000FEF746FF7B68242283F83D207B681B6855
:102AE0001A687B681B6822F001021A607B681B6809
:102AF0001A687B681B6842F400421A607B681B6896
:102B00001A687B681B6822F400421A6000F0EAFF32
:102B1000F8607B685B68814A934207D8FB68804A0B
:102B2000934294BF01230023DBB206E0FB687D4A99
:102B3000934294BF01230023DBB2002B01D0012379
:102B4000E7E0FB68784AA2FB03239B0CBB607B6831
:102B50001B685B6823F03F017B681B68BA680A4307
:102B60005A607B681B681B6A23F03F017B685B68C7
:102B70006A4A934202D8BB68013309E0BB684FF44C
:102B8000967202FB03F3694AA2FB03239B090133FC
:102B90007A6812680B4313627B681B68DB6923F455
:102BA0004F4222F0FF027B685B685C498B4219D878
:102BB000FB68591E7B685B685B00B1FBF3F3591C33
:102BC00040F6FC730B40002B0AD0FB68591E7B6853
:102BD0005B685B00B1FBF3F30133C3F30B0351E01C
:102BE00004234FE07B689B68002B11D1FB68581EC3
:102BF0007B6859680B465B000B44B0FBF3F3013371
:102C0000C3F30B03002B0CBF01230023DBB212E044
:102C1000FB68581E7B6859680B469B000B44990063
:102C20000B44B0FBF3F30133C3F30B03002B0CBFD6
:102C300001230023DBB2002B01D0012322E07B68BB
:102C40009B68002B0ED1FB68581E7B6859680B46A9
:102C50005B000B44B0FBF3F30133C3F30B0343F40A
:102C600000430FE0FB68581E7B6859680B469B00C9
:102C70000B4499000B44B0FBF3F30133C3F30B0394
:102C800043F44043796809681343CB617B681B6850
:102C90001B6823F0C0017B68DA697B681B6A1A43F2
:102CA0007B681B680A431A607B681B689B6823F477
:102CB000034323F0FF037A6811697A68D2681143ED
:102CC0007A6812680B4393607B681B68DB6823F0AB
:102CD000FF017B685A697B689B691A437B681B68A4
:102CE0000A43DA607B681B681A687B681B6842F0DD
:102CF00001021A607B6800221A647B68202283F834
:102D00003D207B6800221A637B68002283F83E2006
:102D1000002318461037BD4680BD00BFA0860100C5
:102D20007F841E00FF083D0083DE1B43D34D6210ED
:102D300080B588B002AFF8607A601A460B467B8196
:102D400013463B81FFF74CFB7861FB6893F83D30FD
:102D5000DBB2202B40F0E0807B6900931923012235
:102D60007049F86800F064F90346002B01D0022393
:102D7000D3E0FB6893F83C30012B01D10223CCE077
:102D8000FB68012283F83C20FB681B681B6803F08A
:102D90000103012B07D0FB681B681A68FB681B68DE
:102DA00042F001021A60FB681B681A68FB681B6826
:102DB00022F400621A60FB68212283F83D20FB6840
:102DC000102283F83E20FB6800221A64FB687A68B0
:102DD0005A62FB683A895A85FB685B8D9AB2FB6838
:102DE0001A85FB68504ADA6279897B693A6AF86821
:102DF00000F09CF80346002B01D001238DE0002356
:102E00003B61FB681B685B693B61FB681B689B69F6
:102E10003B613B6966E07A69396AF86800F0DEF97F
:102E20000346002B0DD0FB681B6C042B07D1FB68FD
:102E30001B681A68FB681B6842F400721A60012361
:102E40006BE0FB685B6A1A78FB681B681A61FB68B9
:102E50005B6A5A1CFB685A62FB685B8D9BB2013B44
:102E60009AB2FB685A85FB681B8D013B9AB2FB68DE
:102E70001A85FB681B685B6903F00403042B1BD1F4
:102E8000FB681B8D002B17D0FB685B6A1A78FB6808
:102E90001B681A61FB685B6A5A1CFB685A62FB6814
:102EA0005B8D9BB2013B9AB2FB685A85FB681B8D18
:102EB000013B9AB2FB681A857A69396AF86800F0B2
:102EC000CEF90346002B0DD0FB681B6C042B07D1F9
:102ED000FB681B681A68FB681B6842F400721A6082
:102EE00001231AE0FB681B8D002B94D1FB681B6843
:102EF0001A68FB681B6842F400721A60FB682022A3
:102F000083F83D20FB68002283F83E20FB68002206
:102F100083F83C20002300E0022318461837BD4602
:102F200080BD00BF020010000000FFFF80B588B028
:102F300002AFF8607A603B600B467B81FB68DB6A1E
:102F40007B617B69082B06D07B69012B03D07B69F1
:102F500013F5803F08D1FB681B681A68FB681B6883
:102F600042F480721A600BE0FB681B6B122B07D1D6
:102F7000FB681B681A68FB681B6842F480721A6061
:102F80003B6800937B6800224FF00111F86800F065
:102F90004FF80346002B0DD0FB681B681B6803F439
:102FA0008073B3F5807F03D1FB684FF400721A641D
:102FB000032335E0FB681B69B3F5804F08D17B899B
:102FC000DBB21A46FB681B6802F0FE021A611BE0C6
:102FD0007B89DB11DBB203F00603DBB263F00F0386
:102FE000DAB2FB681B681A613B687A680E49F868B8
:102FF00000F075F80346002B01D0012310E07B8917
:10300000DAB2FB681B681A613B687A680749F8689E
:1030100000F065F80346002B01D0012300E00023F7
:1030200018461837BD4680BD0800010002000100A7
:1030300080B584B000AFF860B9603B601346FB71A7
:1030400025E03B68B3F1FF3F21D0FFF7C9F9024605
:10305000BB69D31A3A689A4202D33B68002B16D157
:10306000FB6800221A63FB68202283F83D20FB687E
:10307000002283F83E20FB681B6C43F02002FB68B3
:103080001A64FB68002283F83C20012323E0BB681C
:103090001B0CDBB2012B0DD1FB681B685B69DA43AB
:1030A000BB6813409BB2002B0CBF01230023DBB293
:1030B0001A460CE0FB681B689B69DA43BB68134047
:1030C0009BB2002B0CBF01230023DBB21A46FB7915
:1030D0009A42B6D0002318461037BD4680BD80B551
:1030E00084B000AFF860B9607A603B6051E0FB6883
:1030F0001B685B6903F48063B3F5806F23D1FB68C1
:103100001B681A68FB681B6842F400721A60FB684F
:103110001B686FF480625A61FB6800221A63FB68C7
:10312000202283F83D20FB68002283F83E20FB68C4
:103130001B6C43F00402FB681A64FB68002283F8EE
:103140003C20012346E07B68B3F1FF3F21D0FFF72D
:1031500047F902463B68D31A7A689A4202D37B68E1
:10316000002B16D1FB6800221A63FB68202283F82B
:103170003D20FB68002283F83E20FB681B6C43F077
:103180002002FB681A64FB68002283F83C200123BC
:1031900020E0BB681B0CDBB2012B0CD1FB681B6869
:1031A0005B69DA43BB6813409BB2002B14BF012359
:1031B0000023DBB20BE0FB681B689B69DA43BB684A
:1031C00013409BB2002B14BF01230023DBB2002B62
:1031D0008DD1002318461037BD4680BD80B584B020
:1031E00000AFF860B9607A602DE0F86800F078F818
:1031F0000346002B01D001232DE0BB68B3F1FF3F54
:1032000021D0FFF7EDF802467B68D31ABA689A42DC
:1032100002D3BB68002B16D1FB6800221A63FB683F
:10322000202283F83D20FB68002283F83E20FB68C3
:103230001B6C43F02002FB681A64FB68002283F8D1
:103240003C20012307E0FB681B685B6903F08003F7
:10325000802BCAD1002318461037BD4680BD80B5EB
:1032600084B000AFF860B9607A602DE0F86800F0D3
:1032700037F80346002B01D001232DE0BB68B3F1E2
:10328000FF3F21D0FFF7ACF802467B68D31ABA683B
:103290009A4202D3BB68002B16D1FB6800221A6346
:1032A000FB68202283F83D20FB68002283F83E2043
:1032B000FB681B6C43F02002FB681A64FB68002269
:1032C00083F83C20012307E0FB681B685B6903F07F
:1032D0000403042BCAD1002318461037BD4680BD15
:1032E00080B483B000AF78607B681B685B6903F4CF
:1032F0008063B3F5806F1BD17B681B686FF48062BD
:103300005A617B6800221A637B68202283F83D2083
:103310007B68002283F83E207B681B6C43F004022C
:103320007B681A647B68002283F83C20012300E05C
:10333000002318460C37BD4680BC704780B586B068
:1033400000AF78607B68002B01D1012372E27B68BB
:103350001B6803F00103002B00F08780924B5B6831
:1033600003F00C03042B0CD08F4B5B6803F00C03B1
:10337000082B12D18C4B5B6803F48033B3F5803F8C
:103380000BD1894B1B6803F40033002B6CD07B6896
:103390005B68002B68D101234CE27B685B68B3F566
:1033A000803F06D1804B1B687F4A43F48033136013
:1033B0002EE07B685B68002B0CD17B4B1B687A4A44
:1033C00023F480331360784B1B68774A23F48023FF
:1033D00013601DE07B685B68B3F5A02F0CD1724BC6
:1033E0001B68714A43F4802313606F4B1B686E4A5D
:1033F00043F4803313600BE06B4B1B686A4A23F481
:1034000080331360684B1B68674A23F48023136082
:103410007B685B68002B13D0FEF7E2FF386108E0A1
:10342000FEF7DEFF02463B69D31A642B01D9032362
:1034300000E25D4B1B6803F40033002BF0D014E076
:10344000FEF7CEFF386108E0FEF7CAFF02463B698F
:10345000D31A642B01D90323ECE1534B1B6803F40B
:103460000033002BF0D100E000BF7B681B6803F045
:103470000203002B63D04C4B5B6803F00C03002B62
:103480000BD0494B5B6803F00C03082B1CD1464B57
:103490005B6803F48033002B16D1434B1B6803F0A9
:1034A0000203002B05D07B681B69012B01D001238F
:1034B000C0E13D4B1B6823F0F8027B685B69DB00D1
:1034C000394913430B603AE07B681B69002B20D01D
:1034D000364B01221A60FEF783FF386108E0FEF7E1
:1034E0007FFF02463B69D31A022B01D90323A1E1D6
:1034F0002D4B1B6803F00203002BF0D02A4B1B68F6
:1035000023F0F8027B685B69DB00274913430B60FB
:1035100015E0264B00221A60FEF762FF386108E0D2
:10352000FEF75EFF02463B69D31A022B01D9032343
:1035300080E11D4B1B6803F00203002BF0D17B6878
:103540001B6803F00803002B3AD07B689B69002BB3
:1035500019D0174B01221A60FEF742FF386108E0CC
:10356000FEF73EFF02463B69D31A022B01D9032323
:1035700060E10D4B5B6A03F00203002BF0D00120E9
:1035800000F0D8FA1CE00A4B00221A60FEF728FF70
:1035900038610FE0FEF724FF02463B69D31A022B85
:1035A00008D9032346E100BF001002400000424258
:1035B00080044242924B5B6A03F00203002BE9D184
:1035C0007B681B6803F00403002B00F0A680002337
:1035D000FB758B4BDB6903F08053002B0DD1884BBF
:1035E000DB69874A43F08053D361854BDB6903F085
:1035F0008053BB60BB680123FB75824B1B6803F4DF
:103600008073002B18D17F4B1B687E4A43F4807374
:103610001360FEF7E5FE386108E0FEF7E1FE0246C2
:103620003B69D31A642B01D9032303E1754B1B6853
:1036300003F48073002BF0D07B68DB68012B06D18C
:103640006F4B1B6A6E4A43F0010313622DE07B68E7
:10365000DB68002B0CD16A4B1B6A694A23F001031B
:103660001362674B1B6A664A23F0040313621CE073
:103670007B68DB68052B0CD1614B1B6A604A43F009
:10368000040313625E4B1B6A5D4A43F0010313623D
:103690000BE05B4B1B6A5A4A23F001031362584B41
:1036A0001B6A574A23F0040313627B68DB68002B14
:1036B00015D0FEF795FE38610AE0FEF791FE02464E
:1036C0003B69D31A41F28832934201D90323B1E016
:1036D0004B4B1B6A03F00203002BEED014E0FEF705
:1036E0007FFE38610AE0FEF77BFE02463B69D31A93
:1036F00041F28832934201D903239BE0404B1B6A7D
:1037000003F00203002BEED1FB7D012B05D13C4BD6
:10371000DB693B4A23F08053D3617B68DB69002B74
:1037200000F08780364B5B6803F00C03082B61D0F8
:103730007B68DB69022B46D1334B00221A60FEF70F
:103740004FFE386108E0FEF74BFE02463B69D31A94
:10375000022B01D903236DE0294B1B6803F0007392
:10376000002BF0D17B681B6AB3F5803F08D1244B56
:103770005B6823F400327B689B68214913434B60EC
:103780001F4B5B6823F474127B68196A7B685B6A61
:103790000B431B4913434B601B4B01221A60FEF77E
:1037A0001FFE386108E0FEF71BFE02463B69D31A94
:1037B000022B01D903233DE0114B1B6803F000737A
:1037C000002BF0D035E0104B00221A60FEF708FE07
:1037D000386108E0FEF704FE02463B69D31A022B6B
:1037E00001D9032326E0064B1B6803F00073002B6E
:1037F000F0D11EE07B68DB69012B07D1012319E0C2
:103800000010024000700040600042420B4B5B68B9
:10381000FB60FB6803F480327B681B6A9A4206D126
:10382000FB6803F470127B685B6A9A4201D0012343
:1038300000E0002318461837BD4680BD0010024046
:1038400080B584B000AF786039607B68002B01D10F
:103850000123D0E06A4B1B6803F007033A689A42E1
:1038600010D9674B1B6823F0070265493B68134377
:103870000B60634B1B6803F007033A689A4201D060
:103880000123B8E07B681B6803F00203002B20D003
:103890007B681B6803F00403002B05D0594B5B6861
:1038A000584A43F4E06353607B681B6803F00803E5
:1038B000002B05D0534B5B68524A43F4605353606E
:1038C000504B5B6823F0F0027B689B684D491343C3
:1038D0004B607B681B6803F00103002B40D07B68C2
:1038E0005B68012B07D1474B1B6803F40033002BA7
:1038F00015D101237FE07B685B68022B07D1414B28
:103900001B6803F00073002B09D1012373E03D4BCA
:103910001B6803F00203002B01D101236BE0394B3C
:103920005B6823F003027B685B68364913434B6096
:10393000FEF756FDF8600AE0FEF752FD0246FB680E
:10394000D31A41F28832934201D9032353E02D4B1D
:103950005B6803F00C027B685B689B009A42EBD1CA
:10396000274B1B6803F007033A689A4210D2244B96
:103970001B6823F0070222493B6813430B60204B6E
:103980001B6803F007033A689A4201D0012332E032
:103990007B681B6803F00403002B08D0194B5B689D
:1039A00023F4E0627B68DB68164913434B607B6855
:1039B0001B6803F00803002B09D0124B5B6823F44B
:1039C00060527B681B69DB000E4913434B6000F0BB
:1039D00021F802460B4B5B681B0903F00F030A49F1
:1039E000CB5C22FA03F3094A1360094B1B681846A3
:1039F000FEF7B4FC002318461037BD4680BD00BF5B
:103A00000020024000100240BC8800080400002092
:103A10000800002090B48AB000AF294B3C1D0FCBAA
:103A200084E80F0040F201233B800023FB61002368
:103A3000BB6100237B6200237B6100233B62214B3F
:103A40005B68FB61FB6903F00C03042B02D0082BBD
:103A500003D02BE01C4B3B622BE0FB699B0C03F07B
:103A60000F0328333B4413F8243C7B61FB6903F4C8
:103A70008033002B12D0134B5B685B0C03F0010307
:103A800028333B4413F8283CBB617B690E4A03FB97
:103A900002F2BB69B2FBF3F37B6204E07B690B4A81
:103AA00002FB03F37B627B6A3B6202E0064B3B62F4
:103AB00000BF3B6A18462837BD4690BC704700BF20
:103AC000AC8800080010024000127A0000093D0096
:103AD00080B400AF024B1B681846BD4680BC7047DF
:103AE0000400002080B500AFFFF7F2FF0246054B4F
:103AF0005B681B0A03F007030349CB5C22FA03F35C
:103B0000184680BD00100240CC88000880B500AF88
:103B1000FFF7DEFF0246054B5B68DB0A03F0070395
:103B20000349CB5C22FA03F3184680BD0010024023
:103B3000CC88000880B485B000AF78600A4B1B6861
:103B40000A4AA2FB03235B0A7A6802FB03F3FB60C9
:103B500000BFFB685A1EFA60002BF9D100BF00BFFE
:103B60001437BD4680BC704704000020D34D62105E
:103B700080B582B000AF78607B68002B01D1012353
:103B800076E07B685B6A002B08D17B685B68B3F5E5
:103B9000827F09D07B680022DA6105E07B68002221
:103BA0001A617B6800225A617B6800229A627B68F6
:103BB00093F85130DBB2002B06D17B68002283F8EA
:103BC00050207868FEF71CF87B68022283F85120A9
:103BD0007B681B681A687B681B6822F040021A60C9
:103BE0007B685B6803F482727B689B6803F4044320
:103BF0001A437B68DB6803F400631A437B681B6924
:103C000003F002031A437B685B6903F001031A4364
:103C10007B689B6903F400731A437B68DB6903F0DC
:103C200038031A437B681B6A03F0800342EA0301EE
:103C30007B689B6A03F400527B681B680A431A6026
:103C40007B689B691A0C7B681B6802F004025A604F
:103C50007B681B68DA697B681B6822F40062DA61A2
:103C60007B6800225A657B68012283F8512000237B
:103C700018460837BD4680BD80B588B000AFF860F3
:103C8000B9603B601346FB800023FB77FB6893F829
:103C90005030012B01D1022326E1FB68012283F879
:103CA0005020FEF79DFBB861FB88FB82FB6893F810
:103CB0005130DBB2012B02D00223FB770BE1BB6852
:103CC000002B02D0FB88002B02D10123FB7702E1FD
:103CD000FB68032283F85120FB6800225A65FB68C9
:103CE000BA681A63FB68FA889A86FB68FA88DA86EB
:103CF000FB6800229A63FB6800229A87FB68002217
:103D0000DA87FB6800225A64FB6800221A64FB68A9
:103D10009B68B3F5004F0FD1FB681B681A68FB68FE
:103D20001B6822F040021A60FB681B681A68FB6877
:103D30001B6842F480421A60FB681B681B6803F032
:103D40004003402B07D0FB681B681A68FB681B68A0
:103D500042F040021A60FB68DB68B3F5006F4BD19C
:103D6000FB685B68002B02D0FB8A012B3ED1FB680D
:103D70001B6B1A88FB681B68DA60FB681B6B9A1C5C
:103D8000FB681A63FB68DB8E9BB2013B9AB2FB684F
:103D9000DA862BE0FB681B689B6803F00203022BAA
:103DA00012D1FB681B6B1A88FB681B68DA60FB6822
:103DB0001B6B9A1CFB681A63FB68DB8E9BB2013B92
:103DC0009AB2FB68DA8611E0FEF70AFB0246BB698D
:103DD000D31A3A689A4203D83B68B3F1FF3F02D145
:103DE0003B68002B02D10323FB7774E0FB68DB8E7A
:103DF0009BB2002BCED14CE0FB685B68002B02D05D
:103E0000FB8A012B40D1FB681A6BFB681B680C33E3
:103E100012781A70FB681B6B5A1CFB681A63FB68EC
:103E2000DB8E9BB2013B9AB2FB68DA862CE0FB6822
:103E30001B689B6803F00203022B13D1FB681A6B0B
:103E4000FB681B680C3312781A70FB681B6B5A1CDA
:103E5000FB681A63FB68DB8E9BB2013B9AB2FB687E
:103E6000DA8611E0FEF7BCFA0246BB69D31A3A685B
:103E70009A4203D83B68B3F1FF3F02D13B68002B65
:103E800002D10323FB7726E0FB68DB8E9BB2002B7D
:103E9000CDD1BA693968F86800F0B8FB0346002B49
:103EA00002D0FB6820225A65FB689B68002B0AD170
:103EB00000233B61FB681B68DB683B61FB681B6898
:103EC0009B683B613B69FB685B6D002B02D0012363
:103ED000FB7700E000BFFB68012283F85120FB68FC
:103EE000002283F85020FB7F18462037BD4680BD56
:103EF00080B588B002AFF860B9603B601346FB80C4
:103F00000023FB75FB685B68B3F5827F12D1FB6809
:103F10009B68002B0ED1FB68042283F85120FA889D
:103F20003B6800931346BA68B968F86800F0F1F886
:103F30000346EAE0FB6893F85030012B01D10223DD
:103F4000E3E0FB68012283F85020FEF749FA38616C
:103F5000FB6893F85130DBB2012B02D00223FB75D2
:103F6000CAE0BB68002B02D0FB88002B02D10123E2
:103F7000FB75C1E0FB68042283F85120FB68002236
:103F80005A65FB68BA689A63FB68FA889A87FB6887
:103F9000FA88DA87FB6800221A63FB6800229A8697
:103FA000FB680022DA86FB6800221A64FB680022A4
:103FB0005A64FB689B68B3F5004F0FD1FB681B6820
:103FC0001A68FB681B6822F040021A60FB681B68D5
:103FD0001A68FB681B6822F480421A60FB681B6841
:103FE0001B6803F04003402B07D0FB681B681A686E
:103FF000FB681B6842F040021A60FB68DB68002B1C
:1040000062D12EE0FB681B689B6803F00103012B63
:1040100015D1FB681B6803F10C02FB689B6B1278DF
:10402000D2B21A70FB689B6B5A1CFB689A63FB68E0
:10403000DB8F9BB2013B9AB2FB68DA8711E0FEF797
:10404000CFF902463B69D31A3A689A4203D83B68D3
:10405000B3F1FF3F02D13B68002B02D10323FB7574
:104060004AE0FB68DB8F9BB2002BCBD131E0FB68D1
:104070001B689B6803F00103012B13D1FB681B68CD
:10408000DA68FB689B6B92B21A80FB689B6B9A1C88
:10409000FB689A63FB68DB8F9BB2013B9AB2FB68BB
:1040A000DA8711E0FEF79CF902463B69D31A3A68B9
:1040B0009A4203D83B68B3F1FF3F02D13B68002B23
:1040C00002D10323FB7517E0FB68DB8F9BB2002B4B
:1040D000CDD13A693968F86800F046FA0346002BFA
:1040E00002D0FB6820225A65FB685B6D002B02D072
:1040F0000123FB7500E000BFFB68012283F851201B
:10410000FB68002283F85020FB7D18461837BD4617
:1041100080BD80B58CB000AFF860B9607A607B80FC
:104120000123FB62002387F82B30FB6893F85030A3
:10413000012B01D102238AE1FB68012283F8502080
:10414000FEF74EF97862FB6893F8513087F8233018
:10415000FB685B68FB617B887B8397F82330012BCE
:104160000FD0FB69B3F5827F07D1FB689B68002BFA
:1041700003D197F82330042B03D0022387F82B3088
:104180005BE1BB68002B05D07B68002B02D07B88ED
:10419000002B03D1012387F82B304EE1FB6893F805
:1041A0005130DBB2042B03D0FB68052283F8512089
:1041B000FB6800225A65FB687A689A63FB687A8814
:1041C000DA87FB687A889A87FB68BA681A63FB68A3
:1041D0007A88DA86FB687A889A86FB6800221A64F5
:1041E000FB6800225A64FB681B681B6803F04003ED
:1041F000402B07D0FB681B681A68FB681B6842F0FD
:1042000040021A60FB68DB68B3F5006F78D1FB6889
:104210005B68002B02D07B8B012B66D1FB681B6B8C
:104220001A88FB681B68DA60FB681B6B9A1CFB68CA
:104230001A63FB68DB8E9BB2013B9AB2FB68DA869D
:1042400053E0FB681B689B6803F00203022B1BD141
:10425000FB68DB8E9BB2002B16D0FB6A012B13D1BF
:10426000FB681B6B1A88FB681B68DA60FB681B6BBA
:104270009A1CFB681A63FB68DB8E9BB2013B9AB207
:10428000FB68DA860023FB62FB681B689B6803F00F
:104290000103012B19D1FB68DB8F9BB2002B14D0DB
:1042A000FB681B68DA68FB689B6B92B21A80FB683C
:1042B0009B6B9A1CFB689A63FB68DB8F9BB2013B8C
:1042C0009AB2FB68DA870123FB62FEF789F802469F
:1042D0007B6AD31ABA6B9A4207D8BB6BB3F1FF3F24
:1042E00003D0032387F82B30A7E0FB68DB8E9BB25B
:1042F000002BA6D1FB68DB8F9BB2002BA1D17CE009
:10430000FB685B68002B02D07B8B012B6BD1FB68B9
:104310001A6BFB681B680C3312781A70FB681B6BF6
:104320005A1CFB681A63FB68DB8E9BB2013B9AB296
:10433000FB68DA8657E0FB681B689B6803F00203A2
:10434000022B1CD1FB68DB8E9BB2002B17D0FB6AC3
:10435000012B14D1FB681A6BFB681B680C331278B5
:104360001A70FB681B6B5A1CFB681A63FB68DB8EB8
:104370009BB2013B9AB2FB68DA860023FB62FB68C2
:104380001B689B6803F00103012B19D1FB68DB8FCD
:104390009BB2002B14D0FB681B68DA68FB689B6B30
:1043A000D2B21A70FB689B6B5A1CFB689A63FB685D
:1043B000DB8F9BB2013B9AB2FB68DA870123FB6279
:1043C000FEF70EF802467B6AD31ABA6B9A4203D8FC
:1043D000BB6BB3F1FF3F02D1BB6B002B03D10323B7
:1043E00087F82B3029E0FB68DB8E9BB2002BA2D133
:1043F000FB68DB8F9BB2002B9DD17A6AB96BF868A2
:1044000000F004F90346002B06D0012387F82B3077
:10441000FB6820225A6510E0FB689B68002B0BD1DB
:1044200000237B61FB681B68DB687B61FB681B68A2
:104430009B687B617B6900E000BFFB68012283F819
:104440005120FB68002283F8502097F82B30184643
:104450003037BD4680BD000080B588B000AFF86041
:10446000B9603B601346FB71FDF7BAFF0246BB6AB9
:104470009B1A3A681344FB61FDF7B2FFB861394BF0
:104480001B685B011B0DFA6902FB03F37B6154E0BF
:104490003B68B3F1FF3F50D0FDF7A2FF0246BB6976
:1044A000D31AFA699A4202D9FB69002B3DD1FB6805
:1044B0001B685A68FB681B6822F0E0025A60FB68C0
:1044C0005B68B3F5827F11D1FB689B68B3F5004F41
:1044D00004D0FB689B68B3F5806F07D1FB681B684D
:1044E0001A68FB681B6822F040021A60FB689B6A2E
:1044F000B3F5005F0FD1FB681B681A68FB681B6887
:1045000022F400521A60FB681B681A68FB681B687B
:1045100042F400521A60FB68012283F85120FB68C4
:10452000002283F85020032317E07B69002B01D180
:104530000023FB617B69013B7B61FB681B689A6818
:10454000BB681340BA689A420CBF01230023DBB258
:104550001A46FB799A429BD1002318462037BD4664
:1045600080BD00BF0400002080B586B002AFF860B7
:10457000B9607A60FB685B68B3F5827F11D1FB6834
:104580009B68B3F5004F04D0FB689B68B3F5806F60
:1045900007D1FB681B681A68FB681B6822F04002A1
:1045A0001A60FB685B68B3F5827F17D1FB689B6874
:1045B000B3F5806F12D17B680093BB6800220121A4
:1045C000F868FFF749FF0346002B1AD0FB685B6DC4
:1045D00043F02002FB685A65032313E07B680093D5
:1045E000BB6800228021F868FFF736FF0346002BE6
:1045F00007D0FB685B6D43F02002FB685A6503231C
:1046000000E0002318461037BD4680BD80B586B057
:1046100002AFF860B9607A607B680093BB680022E3
:104620008021F868FFF718FF0346002B07D0FB68CE
:104630005B6D43F02002FB685A65032300E0002312
:1046400018461037BD4680BD80B582B000AF786097
:104650007B68002B01D1012341E07B6893F83D305A
:10466000DBB2002B06D17B68002283F83C207868FF
:10467000FDF792FC7B68022283F83D207B681A6874
:104680007B6804331946104600F070FA7B680122FB
:1046900083F846207B68012283F83E207B68012254
:1046A00083F83F207B68012283F840207B68012249
:1046B00083F841207B68012283F842207B68012235
:1046C00083F843207B68012283F844207B68012221
:1046D00083F845207B68012283F83D20002318469B
:1046E0000837BD4680BD000080B485B000AF78605B
:1046F0007B6893F83D30DBB2012B01D001233AE017
:104700007B68022283F83D207B681B68DA687B683F
:104710001B6842F00102DA607B681B68184A93420A
:104720000ED07B681B68B3F1804F09D07B681B6893
:10473000144A934204D07B681B68134A934211D1F8
:104740007B681B689B6803F00703FB60FB68062B14
:1047500010D07B681B681A687B681B6842F00102F6
:104760001A6007E07B681B681A687B681B6842F068
:1047700001021A60002318461437BD4680BC7047FA
:10478000002C0140000400400008004080B582B0C9
:1047900000AF78607B681B681B6903F00203022B83
:1047A00022D17B681B68DB6803F00203022B1BD15C
:1047B0007B681B686FF002021A617B6801221A771E
:1047C0007B681B689B6903F00303002B03D07868A8
:1047D00000F0B1F905E0786800F0A4F9786800F01D
:1047E000B3F97B6800221A777B681B681B6903F0AA
:1047F0000403042B22D17B681B68DB6803F00403ED
:10480000042B1BD17B681B686FF004021A617B6864
:1048100002221A777B681B689B6903F44073002BA4
:1048200003D0786800F087F905E0786800F07AF93D
:10483000786800F089F97B6800221A777B681B682A
:104840001B6903F00803082B22D17B681B68DB6817
:1048500003F00803082B1BD17B681B686FF008026C
:104860001A617B6804221A777B681B68DB6903F096
:104870000303002B03D0786800F05DF905E0786849
:1048800000F050F9786800F05FF97B6800221A7731
:104890007B681B681B6903F01003102B22D17B6817
:1048A0001B68DB6803F01003102B1BD17B681B68AF
:1048B0006FF010021A617B6808221A777B681B6808
:1048C000DB6903F44073002B03D0786800F033F900
:1048D00005E0786800F026F9786800F035F97B6823
:1048E00000221A777B681B681B6903F00103012B08
:1048F0000ED17B681B68DB6803F00103012B07D135
:104900007B681B686FF001021A617868FDF7E8F8B0
:104910007B681B681B6903F08003802B0ED17B68CA
:104920001B68DB6803F08003802B07D17B681B6862
:104930006FF080021A61786800F077FA7B681B6874
:104940001B6903F04003402B0ED17B681B68DB68BA
:1049500003F04003402B07D17B681B686FF04002D7
:104960001A61786800F0F9F87B681B681B6903F02E
:104970002003202B0ED17B681B68DB6803F020032B
:10498000202B07D17B681B686FF020021A617868C2
:1049900000F042FA00BF0837BD4680BD80B584B044
:1049A00000AF786039607B6893F83C30012B01D10F
:1049B0000223B3E07B68012283F83C207B6802225B
:1049C00083F83D207B681B689B68FB60FB6823F0D5
:1049D0007703FB60FB6823F47F43FB607B681B6805
:1049E000FA689A603B681B68B3F5005F3ED0B3F588
:1049F000005F00F28780B3F5805F00F08580B3F53B
:104A0000805F7FD8702B1AD0702B7BD8602B50D052
:104A1000602B77D8502B3CD0502B73D8402B58D0DC
:104A2000402B6FD8302B64D0302B6BD8202B60D02C
:104A3000202B67D8002B5CD0102B5AD062E07B680B
:104A400018683B6899683B685A683B68DB6800F007
:104A500066F97B681B689B68FB60FB6843F0770323
:104A6000FB607B681B68FA689A604EE07B68186898
:104A70003B6899683B685A683B68DB6800F04FF90F
:104A80007B681B689A687B681B6842F480429A6066
:104A90003BE07B6818683B6859683B68DB681A46EE
:104AA00000F0C6F87B681B685021184600F01DF91D
:104AB0002BE07B6818683B6859683B68DB681A46DE
:104AC00000F0E4F87B681B686021184600F00DF9DF
:104AD0001BE07B6818683B6859683B68DB681A46CE
:104AE00000F0A6F87B681B684021184600F0FDF82E
:104AF0000BE07B681A683B681B681946104600F09B
:104B0000F4F802E000BF00E000BF7B68012283F8F8
:104B10003D207B68002283F83C2000231846103794
:104B2000BD4680BD80B483B000AF786000BF0C3755
:104B3000BD4680BC704780B483B000AF786000BFD2
:104B40000C37BD4680BC704780B483B000AF78603E
:104B500000BF0C37BD4680BC704780B483B000AF47
:104B6000786000BF0C37BD4680BC704780B485B00C
:104B700000AF786039607B681B68FB607B68294AFE
:104B800093420BD07B68B3F1804F07D07B68264AF5
:104B9000934203D07B68254A934208D1FB6823F0F7
:104BA0007003FB603B685B68FA681343FB607B68DB
:104BB0001C4A93420BD07B68B3F1804F07D07B68CF
:104BC000194A934203D07B68184A934208D1FB6884
:104BD00023F44073FB603B68DB68FA681343FB60B7
:104BE000FB6823F080023B685B691343FB607B68D2
:104BF000FA681A603B689A687B68DA623B681A68F0
:104C00007B689A627B68074A934203D13B681A69C2
:104C10007B681A637B6801225A6100BF1437BD4666
:104C200080BC7047002C0140000400400008004098
:104C300080B487B000AFF860B9607A60FB681B6A27
:104C40007B61FB681B6A23F00102FB681A62FB6848
:104C50009B693B613B6923F0F0033B617B681B016F
:104C60003A6913433B617B6923F00A037B617A69EC
:104C7000BB6813437B61FB683A699A61FB687A6998
:104C80001A6200BF1C37BD4680BC704780B487B035
:104C900000AFF860B9607A60FB681B6A23F010020D
:104CA000FB681A62FB689B697B61FB681B6A3B615E
:104CB0007B6923F470437B617B681B037A69134330
:104CC0007B613B6923F0A0033B61BB681B013A6930
:104CD00013433B61FB687A699A61FB683A691A621F
:104CE00000BF1C37BD4680BC704780B485B000AFA4
:104CF000786039607B689B68FB60FB6823F0700319
:104D0000FB603A68FB68134343F00703FB607B6872
:104D1000FA689A6000BF1437BD4680BC704780B403
:104D200087B000AFF860B9607A603B60FB689B6851
:104D30007B617B6923F47F437B613B681A027B685C
:104D40001A43BB6813437A6913437B61FB687A6932
:104D50009A6000BF1C37BD4680BC704780B485B0E8
:104D600000AF786039607B6893F83C30012B01D14B
:104D7000022346E07B68012283F83C207B68022204
:104D800083F83D207B681B685B68FB607B681B6861
:104D90009B68BB60FB6823F07003FB603B681B688B
:104DA000FA681343FB607B681B68FA685A607B688B
:104DB0001B68164A93420ED07B681B68B3F1804F84
:104DC00009D07B681B68124A934204D07B681B6839
:104DD000104A93420CD1BB6823F08003BB603B6850
:104DE0005B68BA681343BB607B681B68BA689A60EB
:104DF0007B68012283F83D207B68002283F83C20F9
:104E0000002318461437BD4680BC7047002C014073
:104E1000000400400008004080B483B000AF786018
:104E200000BF0C37BD4680BC704780B483B000AF74
:104E3000786000BF0C37BD4680BC704780B582B03B
:104E400000AF78607B68002B01D101233FE07B68D5
:104E500093F83D30DBB2002B06D17B68002283F84B
:104E60003C207868FDF710F97B68242283F83D2008
:104E70007B681B68DA687B681B6822F40052DA6082
:104E8000786800F085FC7B681B681A697B681B6882
:104E900022F490421A617B681B685A697B681B6820
:104EA00022F02A025A617B681B68DA687B681B68FB
:104EB00042F40052DA607B6800221A647B68202288
:104EC00083F83D207B68202283F83E20002318468B
:104ED0000837BD4680BD80B58AB002AFF860B960C2
:104EE0003B601346FB8000237B61FB6893F83D30F9
:104EF000DBB2202B7CD1BB68002B02D0FB88002BBF
:104F000001D1012375E0FB6893F83C30012B01D1FE
:104F100002236EE0FB68012283F83C20FB6800223C
:104F20001A64FB68212283F83D20FDF759FA786165
:104F3000FB68FA889A84FB68FA88DA84FB689B68C5
:104F4000B3F5805F08D1FB681B69002B04D10023F7
:104F5000FB61BB68BB6103E0BB68FB610023BB6115
:104F6000FB68002283F83C202AE03B6800937B69C1
:104F700000228021F86800F038FA0346002B01D0A7
:104F8000032336E0FB69002B0BD1BB691B881A4653
:104F9000FB681B68C2F308025A60BB690233BB613D
:104FA00007E0FB691A78FB681B685A60FB690133EC
:104FB000FB61FB68DB8C9BB2013B9AB2FB68DA8435
:104FC000FB68DB8C9BB2002BCFD13B6800937B69E5
:104FD00000224021F86800F008FA0346002B01D0B7
:104FE000032306E0FB68202283F83D20002300E035
:104FF000022318462037BD4680BD80B584B000AF7F
:10500000F860B9601346FB80FB6893F83E30DBB272
:10501000202B1DD1BB68002B02D0FB88002B01D1B7
:10502000012316E0FB6893F83C30012B01D10223E9
:105030000FE0FB68012283F83C20FB6800221A6322
:10504000FB881A46B968F86800F019FA034600E0D0
:10505000022318461037BD4680BD000080B58AB0D7
:1050600000AF78607B681B681B687B627B681B688D
:10507000DB683B627B681B685B69FB610023BB618B
:1050800000237B617B6A03F00F03BB61BB69002BCC
:105090000DD17B6A03F02003002B08D03B6A03F09C
:1050A0002003002B03D0786800F0C9FA7BE1BB69CC
:1050B000002B00F0B180FB6903F00103002B05D148
:1050C0003B6A03F49073002B00F0A6807B6A03F028
:1050D0000103002B0AD03B6A03F48073002B05D038
:1050E0007B681B6C43F001027B681A647B6A03F0E7
:1050F0000403002B0AD0FB6903F00103002B05D049
:105100007B681B6C43F002027B681A647B6A03F0C5
:105110000203002B0AD0FB6903F00103002B05D02A
:105120007B681B6C43F004027B681A647B6A03F0A3
:105130000803002B0FD03B6A03F02003002B04D19F
:10514000FB6903F00103002B05D07B681B6C43F067
:1051500008027B681A647B681B6C002B00F01E81C0
:105160007B6A03F02003002B07D03B6A03F0200387
:10517000002B02D0786800F062FA7B681B685B69DC
:1051800003F04003002B14BF01230023DBB27B613B
:105190007B681B6C03F00803002B02D17B69002B9A
:1051A00031D0786800F0A4F97B681B685B6903F074
:1051B0004003002B23D07B681B685A697B681B68FF
:1051C00022F040025A617B689B6B002B13D07B68F6
:1051D0009B6B764A5A637B689B6B1846FDF752FAC5
:1051E0000346002B16D07B689B6B5B6B7A68926BD7
:1051F000104698470EE0786800F0E3F80AE0786817
:1052000000F0DFF806E0786800F0DBF87B68002249
:105210001A64C3E000BFC1E07B681B6B012B40F048
:10522000A1807B6A03F01003002B00F09B803B6A97
:1052300003F01003002B00F095800023FB607B68D7
:105240001B681B68FB607B681B685B68FB60FB6816
:105250007B681B685B6903F04003002B4ED07B68C2
:105260009B6B1B685B683B823B8A002B00F098803D
:105270007B689B8D3A8A9A4280F092807B683A8A5A
:10528000DA857B689B6B9B69202B2BD07B681B6826
:10529000DA687B681B6822F48072DA607B681B68BE
:1052A0005A697B681B6822F001025A617B681B689F
:1052B0005A697B681B6822F040025A617B68202291
:1052C00083F83E207B6800221A637B681B68DA68DB
:1052D0007B681B6822F01002DA607B689B6B1846C3
:1052E000FDF795F97B689A8D7B68DB8D9BB2D31AAD
:1052F0009BB21946786800F06DF851E07B689A8D92
:105300007B68DB8D9BB2D31A7B827B68DB8D9BB283
:10531000002B47D07B8A002B44D07B681B68DA685F
:105320007B681B6822F49072DA607B681B685A699C
:105330007B681B6822F001025A617B68202283F897
:105340003E207B6800221A637B681B68DA687B68F2
:105350001B6822F01002DA607B8A1946786800F038
:1053600039F81FE07B6A03F08003002B08D03B6A0A
:1053700003F08003002B03D0786800F0F9F812E006
:105380007B6A03F04003002B0DD03B6A03F040031F
:10539000002B08D0786800F03AF904E000BF02E082
:1053A00000BF00E000BF2837BD4680BD495500085A
:1053B00080B483B000AF786000BF0C37BD4680BCBE
:1053C000704780B483B000AF786000BF0C37BD4633
:1053D00080BC704780B483B000AF78600B467B80A0
:1053E00000BF0C37BD4680BC704780B584B000AFAD
:1053F000F860B9603B601346FB712CE0BB69B3F108
:10540000FF3F28D0BB69002B07D0FCF7E9FF02461D
:105410003B68D31ABA699A421DD2FB681B68DA68E6
:10542000FB681B6822F4D072DA60FB681B685A695B
:10543000FB681B6822F001025A61FB68202283F896
:105440003D20FB68202283F83E20FB68002283F881
:105450003C2003230FE0FB681B681A68BB681340FD
:10546000BA689A420CBF01230023DBB21A46FB79CB
:105470009A42C3D0002318461037BD4680BD80B481
:1054800085B000AFF860B9601346FB80FB68BA686E
:105490009A62FB68FA889A85FB68FA88DA85FB6865
:1054A00000221A64FB68222283F83E20FB68002257
:1054B00083F83C20FB681B68DA68FB681B6842F4D1
:1054C0008072DA60FB681B685A69FB681B6842F0EF
:1054D00001025A61FB681B68DA68FB681B6842F0CE
:1054E0002002DA60002318461437BD4680BC70479E
:1054F00080B483B000AF78607B681B68DA687B6833
:105500001B6822F49072DA607B681B685A697B68BA
:105510001B6822F001025A617B681B6B012B07D1CB
:105520007B681B68DA687B681B6822F01002DA600F
:105530007B68202283F83E207B6800221A6300BF2C
:105540000C37BD4680BC704780B584B000AF786032
:105550007B685B6AFB60FB680022DA85FB680022DF
:10556000DA84F868FFF72DFF00BF1037BD4680BD15
:1055700080B485B000AF78607B6893F83D30DBB2D3
:10558000212B3ED17B689B68B3F5805F14D17B688B
:105590001B69002B10D17B681B6AFB60FB681B88B2
:1055A0001A467B681B68C2F308025A607B681B6A54
:1055B0009A1C7B681A6208E07B681B6A591C7A682F
:1055C00011621A787B681B685A607B68DB8C9BB21F
:1055D000013B9BB27A681946D184002B0FD17B68BE
:1055E0001B68DA687B681B6822F08002DA607B68DF
:1055F0001B68DA687B681B6842F04002DA600023AF
:1056000000E0022318461437BD4680BC704780B5C1
:1056100082B000AF78607B681B68DA687B681B68C3
:1056200022F04002DA607B68202283F83D2078680F
:10563000FFF7BEFE002318460837BD4680BD80B583
:1056400086B000AF78607B6893F83E30DBB2222BE7
:1056500040F099807B689B68B3F5805F17D17B68C9
:105660001B69002B13D100237B617B689B6A3B6124
:105670007B681B685B689BB2C3F308039AB23B6903
:105680001A807B689B6A9A1C7B689A6226E07B681A
:105690009B6A7B6100233B617B689B68B3F5805FFD
:1056A00007D07B689B68002B0AD17B681B69002BA5
:1056B00006D17B681B685B68DAB27B691A7008E008
:1056C0007B681B685B68DBB203F07F03DAB27B693F
:1056D0001A707B689B6A5A1C7B689A627B68DB8DB8
:1056E0009BB2013B9BB27A681946D185002B48D109
:1056F0007B681B68DA687B681B6822F02002DA602E
:105700007B681B68DA687B681B6822F48072DA6049
:105710007B681B685A697B681B6822F001025A612A
:105720007B68202283F83E207B681B6B012B23D1F2
:105730007B6800221A637B681B68DA687B681B68D9
:1057400022F01002DA607B681B681B6803F010030C
:10575000102B0AD10023FB607B681B681B68FB6071
:105760007B681B685B68FB60FB687B689B8D1946E8
:105770007868FFF72FFE02E07868FCF797F90023BE
:1057800002E0002300E0022318461837BD4680BD22
:1057900080B584B000AF78607B681B681B6923F418
:1057A00040517B68DA687B681B680A431A617B6832
:1057B0009A687B681B691A437B685B691343BB600B
:1057C0007B681B68DB6823F4B05323F00C037A6812
:1057D0001268B9680B43D3607B681B685B6923F46C
:1057E00040717B689A697B681B680A435A617B68D1
:1057F0001B682C4A934203D1FEF788F9F86002E057
:10580000FEF770F9F860FA6813469B0013449A009B
:105810001A447B685B689B00B2FBF3F3224AA2FB4D
:1058200003235B091901FA6813469B0013449A008D
:105830001A447B685B689B00B2FBF3F21A4BA3FB34
:1058400002035B09642000FB03F3D31A1B0132330C
:10585000154AA2FB03235B0903F0F0031944FA681D
:1058600013469B0013449A001A447B685B689B00B4
:10587000B2FBF3F20C4BA3FB02035B09642000FBB9
:1058800003F3D31A1B013233074AA2FB03235B093C
:1058900003F00F027B681B680A449A6000BF103750
:1058A000BD4680BD003801401F85EB510A22002112
:1058B00000F02EBD014B1868704700BF100000209B
:1058C00070B500260C4D0D4C641BA410A64209D1E6
:1058D00002F082FF00260A4D0A4C641BA410A64267
:1058E00005D170BD55F8043B98470136EEE755F8F1
:1058F000043B98470136F2E7B48C0008B48C0008EA
:10590000B48C0008B88C000803460244934200D1CE
:10591000704703F8011BF9E7002B2DE9F0471F46FC
:10592000BBBF03F100431F4600232D2388B014465C
:10593000129A109D1370149BDDF84CA023F02008E0
:10594000B8F1460F05D0B8F1450F00D1013502235B
:1059500000E0032307AA049206AACDE902A2CDE93A
:10596000003522463B4600F06BFDB8F1470F064676
:1059700002D1119BDB0722D5B8F1460F06EB0509D2
:1059800010D13378302B0AD100220023204639462B
:10599000FBF714F818B9C5F10105CAF80050DAF898
:1059A000003099440022002320463946FBF706F8D0
:1059B00008B1CDF81C903022079B4B4507D33046E9
:1059C000079B159A9B1B136008B0BDE8F087591C14
:1059D00007911A70F0E70346F7B5002903F8022B88
:1059E000B6BF2D222B224942092942702BDD0DF131
:1059F0000704A4460A2791FBF7F60A46A64607FBCA
:105A00001615632A05F13005314604F1FF340EF80E
:105A1000015CF0DC3031AEF1020504F8011C2946CE
:105A2000441C61450AD30DF10902A2EB0E02654543
:105A300088BF00221344181A03B0F0BD11F8012BDF
:105A400004F8012FEDE7302330318370C170031D5E
:105A5000F1E700002DE9F04F91B00C46DDF86880C9
:105A600016461F46054601F0D9FA03681846099301
:105A7000FAF778FB00230E93D8F800300A9007332A
:105A800023F0070303F1080294F81890D4F800B04B
:105A9000C8F80020D3E90023C4E91223D4E9128A0C
:105AA0002AF000430B934FF0FF3240469C4B0B997A
:105AB000FAF7B6FF70BB4FF0FF324046984B0B9998
:105AC000FAF790FF30BB0022002340465146FAF718
:105AD0007FFF10B12D2384F84330924B9248B9F1E7
